:020000040800F2
:10000000480D00209D010008A5010008A701000877
:10001000A9010008AB010008AD01000800000000C4
:10002000000000000000000000000000AF01000818
:10003000B101000800000000B30100088D2C000889
:10004000B7010008B7010008B7010008B7010008B0
:10005000B7010008B7010008B7010008B7010008A0
:10006000B7010008B7010008B7010008B701000890
:10007000B7010008B7010008B7010008B701000880
:10008000B7010008B7010008B7010008B701000870
:10009000B7010008B7010008B7010008B701000860
:1000A000B7010008B7010008B7010008B701000850
:1000B000B7010008412D0008B7010008B70100088A
:1000C000B7010008B7010008B7010008B701000830
:1000D000B7010008B7010008B7010008FD330008A8
:1000E000B7010008B7010008B7010008B701000810
:1000F000B7010008B7010008B7010008B701000800
:10010000B7010008B7010008B7010008B7010008EF
:10011000B7010008B7010008692D0008B701000801
:10012000B7010008B7010008B7010008B7010008CF
:10013000B7010008B7010008B7010008B7010008BF
:10014000B7010008B7010008B7010008B7010008AF
:10015000B7010008B7010008B7010008B70100089F
:10016000B7010008B7010008B7010008B70100088F
:10017000B7010008B7010008B7010008000000003F
:10018000B7010008B7010008DFF80CD000F026FB2B
:1001900000480047ED3D0008480D00200648804714
:1001A00006480047FEE7FEE7FEE7FEE7FEE7FEE75C
:1001B000FEE7FEE7FEE7FEE7252D000889010008BF
:1001C0002DE9F05F0546002092469B46884606468C
:1001D000814640241BE0284641464746224600F01F
:1001E0007EFA53465A46C01A914110D3114618461A
:1001F000224600F065FA2D1A67EB01084F462246A9
:100200000120002100F05CFA17EB00094E41201E8E
:10021000A4F10104DFDC484631462A464346BDE8E6
:10022000F09F40EA01039B0703D009E008C9121FB1
:1002300008C0042AFAD203E011F8013B00F8013BA0
:10024000521EF9D27047D2B201E000F8012B491ECC
:10025000FBD270470022F6E710B513460A46044663
:100260001946FFF7F0FF204610BD10B5002200E050
:10027000521C835C8C5CA34201D1002BF8D1D8B214
:10028000E1B2401A10BD10B54843044603F05EFECB
:10029000002805D00021002C02D0641E0155FAE789
:1002A00010BD2DE9FE4F804681EA0300C00F0C46C9
:1002B000009021F0004123F00045B8EB0200A94175
:1002C00005D24046214690461C460B46024623F086
:1002D0000040104347D0270DC7F30A00C3F30A516B
:1002E0000290401A019040286BDAC3F3130040F4E7
:1002F000801B0098924620B10023D2EB030A63EBE7
:100300000B0B01985946C0F14002504600F0D8F955
:1003100006460D4650465946019A00F0F0F910EB9A
:1003200008006141002487EA115284EAE7731A4306
:1003300040D0009A62B3019A012A4FEA075215DCB5
:10034000001B61EB02014FF0004202EA0752CDE9C7
:100350000042001C41F5801132462B4600F0F0F9B6
:1003600003B0BDE8F08F40462146F9E7001B61EB82
:100370000201001C41F5801300185B412018A2F512
:10038000001747EB030140EAD570B6196D4111E043
:100390006D084FEA360645EAC0754FEA0752001B62
:1003A00061EB0201001C41F5801149084FEA300061
:1003B0000019514132462B4603B0BDE8F04F00F022
:1003C000B0B90098012240000023D0EB020263EB99
:1003D000E073009821464FEAE074B8EB000061EB4F
:1003E0000401E9E783F000435BE781F0004158E74F
:1003F0002DE9FE4F81EA030404F0004421F000419E
:1004000000944FF0000B23F0004350EA01045ED04B
:1004100052EA03045BD0C3F30A54C1F30A552C44D7
:10042000A4F2F3340194A0FB0254C1F3130141F48C
:100430008011C3F3130343F4801301FB024400FB58
:10044000034E840A970A44EA815447EA8357A4FB7F
:10045000076802958D0A05FB07854FEA932C04FB7C
:100460000C542705029D4FEA065847EA1637B5EBAC
:1004700008056EEB070C870E920E47EA811742EAD9
:100480008312A7FB0201B6EB0B0164EB00042B0DFA
:1004900043EA0C335E1844EB1C50DA465146E7FB46
:1004A0000201C5F313044FEA0B3343EA14534FEA36
:1004B0000432019C43EA0603A4F10C040294009C5C
:1004C000CDE900B400F03CF903B0BDE8F08F0020A6
:1004D0000146F9E72DE9F04D81EA030404F0004BF1
:1004E00021F0004514464FF0000A23F0004150EA85
:1004F000050220D054EA01021DD0C5F30A57024676
:10050000C5F31303C1F31300C1F30A5640F4801579
:1005100043F48013A7EB0608101BD64608F2FD38FB
:1005200073EB050002D308F1010801E092185B416A
:10053000B8F1000F03DA00200146BDE8F08D00207D
:100540004FF48011064684460EE0171B73EB050737
:1005500005D3121B63EB050306434CEA010C490863
:100560004FEA300092185B4150EA0107EDD152EAA0
:10057000030012D082EA040083EA0501084305D093
:10058000101BAB4106D20122002306E000224FF0EF
:10059000004302E06FF0010253101AEB06004CEB2F
:1005A000085110EB0A0041EB0B01BDE8F04D00F0E3
:1005B000B8B80EB5C10F80EAE0700844CA07002140
:1005C00040F233438DE80E000A460B4600F0B8F8BF
:1005D00003B000BD0EB540F2334102910021CDE9D8
:1005E00000110A460B4600F0ABF803B000BD70B531
:1005F000C1F30A5201F000450024C1F3130140F297
:10060000FF3341F480119A4201DA002070BD40F2BC
:1006100033439A42A2F2334203DC524200F05FF8C5
:1006200000E090402C43F1D0404270BDC1F30A522B
:1006300010B5C1F3130140F2FF3341F480119A4227
:1006400001DA002010BD40F233439A42A2F2334255
:1006500003DC524200F043F810BD904010BD000092
:1006600030B5041E71F1000404DB4FF00044404239
:1006700064EB0101141E73F1000405DB1C464FF00E
:100680000043524263EB04038B4208BF824230BDF9
:1006900030B5041E71F1000404DB4FF00044404209
:1006A00064EB0101141E73F1000405DB1C464FF0DE
:1006B0000043524263EB0403994208BF904230BDAD
:1006C000202A04DB203A00FA02F100207047914012
:1006D000C2F1200320FA03F3194390407047202A07
:1006E00004DB203A21FA02F00021704721FA02F3DC
:1006F000D040C2F120029140084319467047202A99
:1007000006DBCB17203A41FA02F043EAE07306E039
:1007100041FA02F3D040C2F1200291400843194649
:10072000704710B5141E73F1000408DA401C41F143
:10073000000192185B411A4301D120F0010010BD65
:100740002DE9F04D92469B4611B1B1FA81F202E0DB
:10075000B0FA80F220329046FFF7B2FF04460F460F
:1007600040EA0A0041EA0B0153465A46084313D0B7
:10077000114653EA010019D0C8F140025046FFF774
:10078000AEFF05460E46504659464246FFF798FFD3
:10079000084305D0012004E020463946BDE8F08D2D
:1007A0000020054346EAE0762C4337430A98630568
:1007B000E40AA0EB08000022FD0A44EA47540A308C
:1007C00002D500200146E9E7010510196941DDE97C
:1007D000084500196941BDE8F04DA2E7064C074DF8
:1007E00006E0E06840F0010394E807009847103401
:1007F000AC42F6D3FFF7CCFC2C4900084C4900086A
:1008000070B58C1810F8015B15F0070301D110F8D2
:10081000013B2A1106D110F8012B03E010F8016BFF
:1008200001F8016B5B1EF9D12B0705D40023521E82
:100830000DD401F8013BFAE710F8013BCB1A921CEA
:1008400003E013F8015B01F8015B521EF9D5A142E8
:10085000D8D3002070BD70B500252C464C21012056
:10086000FFF711FD30B101F0F1FE641C052CF5DB42
:10087000284670BD0125FBE701490020087070473C
:100880004001002010B50446406800F0E1F9002066
:10089000606010BD2DE9FF4F0024264681B09B46C5
:1008A000914607463546D0F804A003F097FA4FF07A
:1008B000010890B18DF800606946504600F0A0F93B
:1008C00004000BD19DF8000040B1504600F05AF8EA
:1008D000040003D103F082FA00B9454620000BD191
:1008E00045B17868029A05B04B465946BDE8F04FCD
:1008F00000F006B8C9F8006005B0BDE8F08F000050
:100900002DE9FC4782461E481E46174689460025AB
:100910008046446906E0504600F034F805002CD1CA
:10092000D8F81440002CF6D0D4E91001401A8742C0
:1009300001DB306000E03760606C326801194846C6
:10094000FFF76FFC606C316808446064216C88427A
:1009500013D103F03BFA064600202064606402F0E5
:100960004DF801F073FE46B102200022009001AB69
:100970001146504600F0F8F905462846BDE8FC87C8
:10098000400100202DE9FC47184C81460146606873
:1009900000F078FA050025D16068A8468178022920
:1009A00014D0D0E9017602F023F804463A463146E5
:1009B000FFF737FC0D49C4E9107818312246081FAB
:1009C00001F031FE03F002FA18B10BE084F8008068
:1009D00008E002200022009001AB1146484600F0DA
:1009E000C3F905462846BDE8FC8700004001002009
:1009F000002070477047406800B101200870002057
:100A0000704700002DE9F0410F468046402400F079
:100A1000EBF805001AD000F093F8204603F096FAA0
:100A20000C4EB168886080B12046CC6003F08EFA2D
:100A30007168886048B1CC60FFF70DFF28B93A466D
:100A40004146284600F0AAF800B100252846BDE836
:100A5000F08100004001002070B50C46064600F011
:100A6000CFF9094DA86060B12246314600F02CF85C
:100A7000044624B1A86800F0C7F90020A860204609
:100A800070BD02A4F5E700002C000020436F756CD8
:100A900064206E6F7420637265617465206578747C
:100AA00065726E616C206D6F646520757365722070
:100AB000646174612E20204F7574206F66206D650F
:100AC0006D6F72792E0A00002DE9F0474FF0000893
:100AD00015468946074601244646C2460CE055F8AD
:100AE0002400641C40B10BA1FFF7BFFB20B905EB4C
:100AF0008401012641F804AC48464C45EFDB3E70CA
:100B00002946FFF77FFF786008B90FF20C084046CE
:100B1000BDE8F0872D7700004578744F70656E53FF
:100B2000657269616C436F6E6E656374696F6E2880
:100B3000292063616C6C206661696C65642E0A0013
:100B400010B503E001F054FF03F012F903F03EF991
:100B50000028F7D003E001F051FF03F009F903F09A
:100B60003DF90028F7D00C4C6068806803F000F96C
:100B700024216068FFF76EFBA068806803F0F8F836
:100B80002421A068FFF766FB0020A061606120615E
:100B9000E060207010BD0000400100202DE9F0470A
:100BA00005464078904689460024A0B910210120CE
:100BB000FFF769FB0B4F786068B100260673467338
:100BC000012068704146484603F08EFC7968086051
:100BD000401C04D000E001242046BDE8F0876E7080
:100BE000F9E700003801002004480121002211B17A
:100BF0000170427070470270FBE70000380100206E
:100C00002DE9F8430025009540780C462E46D0B1DA
:100C10000E48012741680A7B0AB1277010E0267050
:100C2000804601C96B46082203F072FC401C0AD0C2
:100C3000009828B12770D8F8040000990173467312
:100C40002846BDE8F8830120FBE7000038010020BA
:100C500070B54178002571B1094E0021417070686E
:100C6000006803F03BFC0446706808B103F080F8AC
:100C7000641C02D002E0012070BD0125284670BD31
:100C8000380100202DE9F0474FF0000AC3F800A01A
:100C90004078994617468846154618B3144E706832
:100CA000047B94B1AC4200D93C46417B001D014419
:100CB00022464046FFF7B5FA7068A044017B091B45
:100CC0000173417B2D1B2144417370682A464146C4
:100CD000006803F0D1FB401C06D0C9F800705046F4
:100CE000BDE8F0870120FBE74FF0010AF7E70000BD
:100CF0003801002010B54078002438B1064840681B
:100D0000006803F0D2FB401C02D002E0012010BDBD
:100D10000124204610BD0000380100202DE9FC5FB1
:100D20000127D0F804A000209B4616460D46044635
:100D3000B846DFF8309001900BE02A1B311901AB67
:100D40005046009700F010F828B9019989F8008002
:100D50000C44AC42F1DB002801D1CBF80050BDE8D7
:100D6000FC9F0000400100202DE9FE4389460A9EB9
:100D70008046122A00D91222154600241F4F1A60FD
:100D800028E000208DF8040001A94046FFF738FF55
:100D900000281CD19DF8040020B14046FFF7F2FD69
:100DA000002814D103F012F898B12046641CC8281A
:100DB00010DB0024FFF74FFD002808D1022000229D
:100DC000009002AB11464046FFF7CEFF10B1BDE8E0
:100DD000FE830024387808B1022ED2D1B8682A46A2
:100DE0004946456086708068FFF71BFAB86803B013
:100DF0004146BDE8F04301F097BE000040010020ED
:100E0000004870475C01002070470000014880687E
:100E100000F002B82C00002000787047F0B50024E4
:100E200015467D260AE00B787E2B0BD0032B09D0CC
:100E30007D2B07D000F8013B491C641C9442F2D37F
:100E40002846F0BD00F8016B0B786D1C83F0200381
:100E500000F8013BF0E7000070B50646084D0020A1
:100E60000446287068703146204602F0A3FD641CD9
:100E7000022CF8DBA868BDE87040FFF703BD000056
:100E80002C0000202DE9FF5F002504468DF800505E
:100E9000019548788B46A946C0B17E2020706070CD
:100EA0000320207460746561A561E56184F82050B9
:100EB0004FF0010A671C04F1100601AB01226946DC
:100EC0005846FFF7DFFE01007ED103E0012004B0A9
:100ED000BDE8F09F0198012802D06561A561BAE0E4
:100EE0006069052828D2DFE800F027270303030004
:100EF00094F8200040B184F820509DF8000080F064
:100F000020008DF8000017E09DF8000003280FD0A6
:100F10007D2802D07E280FD102E084F820A0CCE703
:100F2000A7612070E069C4F814A0401CE061C4E728
:100F3000A5614FF000096561606906280FD2DFE8FE
:100F400000F0030F1B2E5F749DF800007E287CD1FB
:100F5000A7612070E069C4F814A0401CE06174E04F
:100F60009DF800107E2974D1A069421CA261017015
:100F700002206061A01C0FE0E06930BBA0699DF811
:100F80000020411CA1610270E069401CE061012861
:100F90005BD103206061201DC4E9060555E0E069CE
:100FA000042856D2A0699DF80020411CA16102705E
:100FB000E069401CE061042847D19BF800100295CD
:100FC0006068039091B901E046E042E0042100200E
:100FD0000DF10C0802AA18F8003002EB010C401CBD
:100FE000491E0CF8013C0428F5DB0298E5616060BD
:100FF00020B104206061A068A06126E0052011E016
:101000006168E069884224D2A0699DF80020411CF3
:10101000A1610270E069401CE0616168884214D1FE
:101020000520E561C4E905060FE0E069022810D259
:101030009DF80020032A0CD1A069431CA361027013
:10104000E069401CE061022808D0B9F1000F3FF4CC
:1010500066AFA56165610121084638E70620C4E94D
:101060000505E561F8E70000FEB51A4D07460024C6
:10107000E86887420BDD286918B102F079FE00208C
:10108000E860384602F062FF286120B1EF60002678
:10109000E6B100240AE00126FAE702AB01AA012129
:1010A000A868FFF7F7FB18B901980444BC42F4DBC9
:1010B00076B107E02869391B03196A46A868FFF76B
:1010C000E9FB08B10020FEBD00980444BC42F1DBFE
:1010D0002869FEBD2C00002090F83510022903D0AD
:1010E0008021416501207047052180F83510006896
:1010F000016821F001010160002070472DE9F84FDF
:10110000DFF880B100224FF003094FF00F0A0BF116
:10111000040E01250B6895402B40AB4272D14C6800
:10112000012C05D0022C03D0112C01D0122C10D18F
:101130008668540009FA04F7BE43CF68A7403743D6
:10114000876046680C79AE43C4F30014944034437E
:101150004460C468570009FA07F58E68AC43BE4086
:101160002643C6604C68022C01D0122C12D1D40840
:1011700000EB840CDCF820605407E40E0AFA04F853
:1011800026EA0806D1F8108008FA04F848EA0608AA
:10119000CCF820800468AC430D7905F00305BD4010
:1011A000254305604C68E40065D5374C256845F457
:1011B00080452560246822F0030504F480440094EF
:1011C000324C2E19D6F808789407250F0AFA05F440
:1011D000A7432F4CA04201D1002424E02D4CA04273
:1011E00001D101241FE02C4CA04201D102241AE0BD
:1011F0002A4CA04201D1032415E0294CA04202D17F
:10120000042410E037E0274CA04201D105240AE075
:10121000254CA04201D1062405E0244CA04201D176
:10122000072400E00824AC403C43C6F80848DBF83B
:1012300000405D464E689C43F60300D51C432C607D
:10124000DEF8004075464E689C43B60300D51C434B
:101250002C600C4D08352C684E689C43F60200D576
:101260001C432C60074D0C352C684E689C43B6021D
:1012700000D51C432C60521C102AFFF44AAFBDE875
:10128000F88F0000003C014044380240003001402B
:10129000000002400004024000080240000C02402E
:1012A000001002400014024000180240001C0240DE
:1012B000426931EA020200D10904816170470AB132
:1012C000816170470904FBE70148806870470000AE
:1012D0000C00002002488168027811448160704748
:1012E0000C0000200B4810B5016841F4007101604A
:1012F000016841F480610160016841F4807101601E
:10130000032000F08BF8002000F006F800F03EF813
:10131000002010BD003C024010B5014688B00022FC
:10132000362000F05BF8362000F04AF8134800241D
:10133000016841F010010160006805A900F010008B
:101340000690684600F016F900F034F90C494000A8
:10135000B0FBF1F10C480B4A491E026040F2E73243
:10136000C0E90324C0E9011400F062FB10B10120C0
:1013700008B010BD044800F0B1FBF9E74038024066
:1013800040420F00001000402C0200200B4882B0A9
:10139000016841F480410160006800F480400090E1
:1013A0000648001F016841F080510160006800F0AC
:1013B00080500090072002B000F030B8443802405E
:1013C000002809DB00F01F02012191404009800044
:1013D00000F1E020C0F8001170470000F0B40E4B9F
:1013E0001B68C3F30223C3F10704042C00D90424AF
:1013F0001D1D072D01D2002300E0DB1E012606FA89
:1014000004F56D1E0D409D409E40761E164045EA37
:101410000601F0BC02F08CBC0CED00E0064A00F0C6
:10142000070110684FF6FF03184040EA0120034906
:1014300008431060704700000CED00E00000FA0562
:101440002DE9F0470D46040065D0DFF81491D9F876
:101450000000EFB200F00F00A84207D289F8007038
:10146000D9F8000000F00F00A84254D120683D4E8A
:10147000810712D5400703D5306840F4E050306052
:101480002078000703D5306840F460403060306851
:10149000A16820F0F000084330602078C0072DD00C
:1014A000304960680839012812D0022813D0032877
:1014B00011D00968890700292DDA316821F003016C
:1014C00001433160FFF700FF804641F2883A0EE0A9
:1014D00009688903EFE709688901ECE7FFF7F4FE83
:1014E000A0EB0801514502D90320BDE8F087306820
:1014F000616800F00C00B0EB810FEFD1D9F800105B
:10150000484601F00F01A94207D90770006800F0B2
:101510000F00A84201D00120E7E72078400705D559
:101520003068E16820F4E05008433060207800071C
:1015300006D53068216920F4604040EAC10030607F
:1015400000F058F83168084AC1F30311515CC840F3
:101550000649086006480068FFF7DEFE0020C4E781
:10156000003C024008380240724800081800002081
:10157000100000200F2202600C4A136803F00303DE
:101580004360136803F0F0038360136803F4E053CF
:10159000C36012684FF4E05303EAD20202610448C8
:1015A000006800F00F000860704700000838024033
:1015B000003C02400448054900680968044AC1F338
:1015C0008221515CC8407047180000200838024052
:1015D000824800080448054900680968044AC1F3C4
:1015E0004231515CC8407047180000200838024062
:1015F00082480008154810B5006810F00C01144826
:1016000013D0431004290FD008290ED10F4C241FEA
:10161000216801F03F022168490207D52068C0F324
:101620008810A0FB030106E0184610BD2168C1F335
:101630008811A1FB00010023FEF7C2FD2168C1F360
:101640000141491C4900B0FBF1F010BD08380240CF
:101650000024F4002DE9F84F040075D02078DFF85D
:1016600028A3C007AAF1040548D00AF104000168C4
:10167000C1F38101012908D00068C0F3810002286C
:101680000AD1DAF80000400206D52868800335D573
:1016900060680028E1D031E06068B0F5803F10D08C
:1016A000B0F5A02F286810D020F48030286028687A
:1016B00020F4802028606068A0B1FFF705FE064690
:1016C0000CE0286840F48030F4E740F48020286083
:1016D000F7E7FFF7F9FD801B642871D828688003BD
:1016E000F7D50BE0FFF7F0FD064604E0FFF7ECFD51
:1016F000801B6428F1D828688003F7D42078DFF8AD
:101700008C9280074FF0000B3DD59F48001D01686B
:1017100011F00C0F08D00068C0F3810002280AD134
:10172000DAF80000400206D42868800715D5E06882
:10173000012809D111E0E068B8B10121C9F8001011
:10174000FFF7C2FD064605E01AE1FFF7BDFD801B6D
:101750000228C2D828688007F7D52868216920F0B8
:10176000F80040EAC10028600DE0C9F800B0FFF7BA
:10177000ABFD064604E0FFF7A7FD801B02281FD83B
:1017800028688007F7D42078000722D57E4F80484C
:101790006169703771B101210160FFF795FD06465F
:1017A00004E0FFF791FD801B022809D83868800704
:1017B000F7D50EE0C0F800B0FFF786FD064605E05D
:1017C00082E0FFF781FD801B02287DD83868800702
:1017D000F7D42078400765D56B484FF000083C30BF
:1017E0000068C0000BD468483C30016841F080516B
:1017F000016000684FF0010800F080500090654FD4
:101800003868C0050FD4386840F480703860FFF73E
:101810005BFD064604E0FFF757FD801B022853D806
:101820003868C005F7D5584FA0686C3701280FD02D
:101830000528386810D020F001003860386820F0A2
:1018400004003860A068B0B1FFF73EFD06460EE028
:10185000386840F00100F4E740F004003860F7E732
:10186000FFF732FD811B41F28830814263D838682E
:101870008007F5D50DE0FFF727FD064606E0FFF7E8
:1018800023FD811B41F28830814254D8386880079B
:10189000F5D4B8F1000F05D03B483C30016821F089
:1018A00080510160A069B8B33749091D0968C1F3C7
:1018B0008101022946D00228584606D0C9F86000A6
:1018C000FFF702FD044639E035E04F46C9F86000F5
:1018D000FFF7FAFC064604E0FFF7F6FC801B02283F
:1018E00029D828688001F7D4D4E907010843A16A00
:1018F000294A490802EB0141626A41EA8211084320
:1019000094F82C1040EA0161CAF8001001203866F2
:10191000FFF7DAFC044605E034E0FFF7D5FC001BD6
:10192000022808D828688001F7D52BE0FFF7CCFC07
:10193000001B022802D90320BDE8F88F2868800127
:10194000F4D41FE00128F7D0DAF80000E26900F4CF
:101950008001914214D1226A00F03F0191420FD1DF
:1019600047F6C071626A0140914209D1A26A00F44F
:101970004031914204D1E16A00F07060884201D0A8
:101980000120D9E70020D7E7043802400000474291
:10199000800E4742007000400000FFFF7047704714
:1019A00070B590F83C20012A32D0012580F83C50D7
:1019B000022280F83D2002685368946823F0700684
:1019C0000B6833435360134B02689A4214D0B2F150
:1019D000804F11D0104B9A420ED0104B9A420BD030
:1019E0000F4B9A4208D00F4B9A4205D00E4B9A42A9
:1019F00002D00E4B9A4204D1496824F08003194367
:101A0000916080F83D50002180F83C10084670BD80
:101A1000022070BD000001400004004000080040AA
:101A2000000C00400004014000400140001800404C
:101A300010B5040003D094F83D0010B107E0012078
:101A400010BD002084F83C00204600F00DF8022074
:101A500084F83D00211D206801F08CF9012084F8F4
:101A60003D00002010BD000010B586B004461421D2
:101A70006846FEF7EFFB16492068884226D11548D4
:101A80000021026842F002020260006800F00200D9
:101A9000059010481038026842F0040202600068A5
:101AA00000F004000590402000900220CDE90101E3
:101AB000CDE9031069460848FFF720FB00221146D4
:101AC0001D20FFF78BFC1D20FFF77AFC06B010BD30
:101AD0000004004040380240000802400168CA6823
:101AE00042F00102CA600068816801F0070106291E
:101AF00003D0016841F0010101600020704790F8B7
:101B00003C20012A0CD0012200F83C2F0223437014
:101B100050F83C3C59614270002101700846704702
:101B20000220704770B5504D002205F10804296865
:101B300054F82230834202D155F8221003E0521C9F
:101B400092B2022AF4D383427ED1027F032401257C
:101B5000012A0CD10A7D052A0DD0042A76D102680B
:101B6000526BA1F85C200268926BA1F85E20027FA4
:101B7000022A24D030E091F87C204FF6FF76012A2B
:101B80000ED0032A62D10268526B92B2A1F8602093
:101B900081F87C50B1F85C309A420DD3D21A09E03A
:101BA0000268526B92B2A1F85C2081F87C40B1F8D7
:101BB0006030F1E74A63DAE7F31A1A44FAE74A7D3C
:101BC000052A0DD0042A41D10268526BA1F8642085
:101BD0000268926BA1F86620027F042A14D022E0EA
:101BE00091F87D20012A08D0032A2FD10268926B38
:101BF000A1F8682081F87D50EEE70268926BA1F8A9
:101C0000642081F87D40E7E78A7D052A1ED191F89E
:101C10007E20012A1BD0032A18D10268D26BA1F8BA
:101C2000702081F87E50027F082A0FD1CA7D052AD4
:101C30000CD191F87F20012A10D0032A06D1006828
:101C4000006C21F8780F00E000E0CD7170BD0268F3
:101C5000D26BA1F86C2081F87E40E4E70068006C4C
:101C600021F8740FCC7270BD1C0100202DE9F041E9
:101C7000044690F83C000D4601283CD0012684F82B
:101C80003C60022084F83D00A2B3042A45D02068BD
:101C9000082A54D0D5E90027E968036A23F4805361
:101CA0000362D0F81CC0036A2CF4407C4CEA07277E
:101CB0004FF6FF7C27F470470CEA013139434FF4AB
:101CC000204723F4204307EA02321A43C16102622B
:101CD0002068C16921F44061C1612068C169AA68B6
:101CE00041EA0221C16184F83D60002084F83C0093
:101CF000BDE8F08101E00220FAE7D5E90012EB68C7
:101D0000206801F0E7F92068816921F00C01816108
:101D100020688169AA6811430FE0D5E90012EB68D9
:101D2000206801F029FA2068816921F4406181610D
:101D300020688169AA6841EA02218161D3E7D5E977
:101D4000002C2F7B016A21F480710162C169036A52
:101D500021F0030141EA0C0121F0F00C39074FF4A6
:101D600020674CEA116123F4206307EA02221A4338
:101D7000C16102622068C16921F00C01C161206863
:101D8000C169AA681143ADE710B5040003D094F807
:101D90003D0010B107E0012010BD002084F83C0098
:101DA000204600F00CF8022084F83D00211D206838
:101DB00000F0E0FF012084F83D00002010BD7047D6
:101DC00010B50268044631B1042908D008291AD098
:101DD0000C2908D11BE0D06840F0020002E0D06876
:101DE00040F00400D0600122206801F027F820684C
:101DF000816801F00701062903D0016841F0010163
:101E00000160002010BDD06840F00800EAE7D0680B
:101E100040F01000E6E770B50446006801694FF035
:101E20000005C943890715D4C168C943890711D47E
:101E3000E91E016101202077206880698007204623
:101E400002D0FFF76FFE04E000F0C2F8204600F079
:101E500057F9257720680169C943490717D4C16834
:101E6000C943490713D46FF00401016102202077B0
:101E70002068806910F4407F204602D0FFF752FEB0
:101E800004E000F0A5F8204600F03AF92577206834
:101E90000169C943090716D4C168C943090712D4A7
:101EA0006FF008010161042020772068C069800775
:101EB000204602D0FFF736FE04E000F089F8204605
:101EC00000F01EF9257720680169C943C90617D4B7
:101ED000C168C943C90613D46FF01001016108201D
:101EE00020772068C06910F4407F204602D0FFF7B9
:101EF00019FE04E000F06CF8204600F001F92577A7
:101F000020680169C943C90708D1C168C943C90725
:101F100004D1891E0161204600F016F9206801698C
:101F2000C943090609D4C168C943090605D46FF03D
:101F3000800101612046FFF731FD20680169C94336
:101F4000490609D4C168C943490605D46FF0400168
:101F50000161204600F031F920680169C943890612
:101F60000BD4C168C943890607D46FF02001016111
:101F70002046BDE87040FFF712BD70BD10B586B0B9
:101F8000044614216846FEF765F90E492068884228
:101F900015D10D480021026842F008020260006875
:101FA00000F0080005904FF4805000900220CDE929
:101FB0000101CDE9031069460448FFF79FF806B018
:101FC00010BD00000008004030380240000C024004
:101FD000704770B5044690F83C000D4601280DD0BE
:101FE000012684F83C60022084F83D0042B1042AB6
:101FF00018D0082A2AD00C2A4DD139E0022070BD11
:10200000206800F033FF2068816941F00801816198
:102010002068816921F004018161206881692A6951
:10202000114311E0206800F051FF2068816941F4FC
:10203000006181612068816921F48061816120688B
:1020400081692A6941EA0221816124E0206800F067
:1020500073FF2068C16941F00801C1612068C1694E
:1020600021F00401C1612068C1692A69114311E0AE
:10207000206800F095FF2068C16941F40061C161EA
:102080002068C16921F48061C1612068C1692A6941
:1020900041EA0221C16184F83D60002084F83C00DF
:1020A00070BD10B5040003D094F83D0010B107E0F6
:1020B000012010BD002084F83C00204600F00CF800
:1020C000022084F83D00211D206800F053FE01200D
:1020D00084F83D00002010BD08B50068064988421C
:1020E00008D10648016841F004010160006800F071
:1020F0000400009008BD0000000800404038024085
:102100007047000010B504460068012200F096FEFA
:102110000B482168814202D00A48814203D1486CB1
:1021200040F4004048642068816801F007010629F6
:1021300003D0016841F001010160002010BD0000E2
:10214000000001400004014010B5044600F050FFBB
:1021500004492068884203D1BDE81040FFF7BAB8AF
:1021600010BD00000010004070B5044690F83C001F
:10217000012810D0012584F83C50022084F83D004D
:10218000204600F053FF002138B184F83D5084F818
:102190003C10012070BD022070BD2068C26822F092
:1021A0004002C2602068C26822F48042C26084F8A3
:1021B0003D5084F83C10002070BD704710B50B4CAA
:1021C00001220B48616800F015F958B1084890F8F1
:1021D000380038B9064800F00DF8222802D104482A
:1021E00000F098F80020A07010BD00001C00002036
:1021F000EC01002010F8391F4078084370470000B8
:1022000070B5026804461068D168536910F00F0F6A
:1022100052D003F0010501F490762E435FD0C2073F
:1022200005D0CA0503D5E26B42F00102E263420722
:1022300005D5DA0703D0E26B42F00202E2638207BF
:1022400005D5DA0703D0E26B42F00402E26302072D
:1022500007D501F020022A4303D0E26B42F00802C6
:10226000E263E26B002A33D0800604D5880602D5EB
:10227000204600F0B2FF20684069E16BC0F3801097
:10228000090700D428B3204600F099FF206841696F
:1022900049061AD5416921F040014161606BA0B146
:1022A0001B490165606BFEF717FF002810D0606BBB
:1022B000016DBDE870400847830610D58B060ED52A
:1022C0002046BDE8704000F088BF2046FFF776FF4B
:1022D00070BD2046FFF772FF0020E06370BD03066B
:1022E00006D50B0604D52046BDE8704001F054B871
:1022F0004006F3D54806F1D5D168204621F04001CB
:10230000D160202184F8391000F0F2F870BD00008F
:10231000AF31000870B5040004D094F839000025EE
:1023200010B106E0012070BD84F83850204600F05E
:1023300023F8242084F839002068C16821F4005172
:10234000C160204600F094FF2068016921F49041AB
:1023500001612068416921F02A0141612068C1685A
:1023600041F40051C160E563202084F8390084F80D
:102370003A00002070BD000010B586B0044614215C
:102380006846FDF767FF18492068884229D1174839
:102390000021026842F480220260006800F480207C
:1023A000059012481038026842F00202026000688C
:1023B00000F0020005904FF4406000900220CDE94B
:1023C0000101032003900720049069460848FEF7A6
:1023D00095FE002211462720FFF700F82720FEF780
:1023E000EFFF06B010BD000000480040403802403A
:1023F0000004024090F83A30202B22D1F9B1F2B11A
:1024000090F83830012B1CD081628285C285002172
:10241000C163222280F83A2080F838100168CA6827
:1024200042F48072CA6001684A6942F001024A615E
:102430000068C16841F02001C160002070470120A0
:10244000704702207047000070B5164C6068401C51
:102450006060E168491CE1601349884202D1A1F53E
:10246000007060600146A0680025814201D1A5701E
:1024700070BD0120A07002460C48FFF7BBFF00288A
:10248000F6D00A48A57090F838000028F0D1074827
:10249000FFF7B0FE2228EBD1BDE870400348FFF7FC
:1024A00039BF00001C0000206C040020EC0100205B
:1024B00090F83930202B18D1A9B1A2B190F838305A
:1024C000012B12D001628284C2840021C1632122C7
:1024D00080F8392080F838100068C16841F0800128
:1024E000C160002070470120704702207047000043
:1024F00010B5104C01202070A178002918D1A070CF
:1025000001220D486168FFF775FF002810D00020F8
:10251000A070094890F83800002809D10648FFF754
:1025200069FE222804D1BDE810400348FFF7F2BE3F
:1025300010BD00001C000020EC0100202DE9FF4F21
:1025400085B0924608980A464FF00009046805983D
:1025500054F8041B006850F82110CAF8001054F811
:1025600004BB04211046FDF78EFECAF80400C8B172
:10257000002732E054F8045B0C210120FDF783FEB4
:10258000DAF8041041F8250060B154F8042B054630
:102590000260101E04DD0821FDF775FE686008B1B9
:1025A000002616E04FF0010919E06868102200EBE0
:1025B000C60821466846FDF734FE42466946103497
:1025C000059800F012F8A968D8F80400761C0844B1
:1025D000A8602868B042E8DC7F1C5F45CADB089829
:1025E000046009B04846BDE8F08F70B580680826E1
:1025F0000068C368456858680B6800EB031406EB75
:1026000003132468C358C86855F820000BB102238F
:1026100000E0012358438B684968434300FB0140B5
:10262000C2E9000370BD70B50D4606461446096840
:10263000006801F0C5FB002110B12C60346002E09D
:10264000286884642C60A16470BD000002490246C1
:10265000081FFFF7E8BF00005001002070B586B0EA
:1026600014216846FDF7F6FD1E480025016841F07B
:1026700080010160016801F080010591016841F06D
:1026800002010160016801F002010591016841F059
:1026900008010160016801F008010591016841F03D
:1026A00004010160016801F004010591016841F035
:1026B0000101016000680C4E00F001004FF400546D
:1026C0000590002221463046FEF7F9FD01200094D6
:1026D000CDE90105694630460395FEF70FFD06B0CA
:1026E00070BD000030380240000C024010B58CB0C4
:1026F000142106A8FDF7AEFD0024194800940194AA
:1027000002940394049415490594C0E900144FF60B
:10271000FF71C0E9024104618461FFF789F9104843
:10272000FFF732FB042006905020CDE9070406A9EC
:102730000B480A94FFF718FD009469460848019475
:10274000FFF72EF90120CDE902400494002202A9EE
:1027500003480594FFF78AFA0CB010BD000400404E
:102760006C01002010B58AB0002407941C21684633
:102770000894FDF76FFD11480F49C0E900144FF6AA
:10278000FF71C0E9024104618461FFF78AFC07948C
:1027900007A90A480894FFF703F96020CDE900046F
:1027A00002940022694605480494FFF712FC03488E
:1027B000FFF7E4FB0AB010BD00080040AC010020A8
:1027C00070B5044615460846FEF74EFC28B106686B
:1027D0001D2C0ED01E2C10D107E04FF0FF3201212E
:1027E000204600F043F9012070BD304600F0DCFFC8
:1027F00003E02946304600F007FE32462046BDE899
:102800007040002100F032B92DE9FE4F0746806884
:102810004FF0100ADFF8C0B0066808200146D6E97C
:102820000089CDE900A0002402AB6A46DBF808006D
:10283000FEF774FA050049D10298082846D130689D
:1028400008308600304601F081FB04000CD0CDE951
:1028500000A602AB6A460821DA46DBF80800FEF75C
:102860005DFA050032D101E001252FE00298082829
:102870002CD178680068206078684068606078686B
:102880008068A0607868C068E06000202061042053
:10289000606112480078C4E90608002005E059F894
:1028A000201004EB8002401C11624045F7DB02ABB4
:1028B000224631465746DAF80800FEF72FFA05009F
:1028C00004D10298B04201D101207870204601F075
:1028D0004FFA2846BDE8FE8F2C0000204000002063
:1028E0002DE9F0478068006805699DB300214668BE
:1028F0002F6808464FF004094FF00C080BE009EB75
:1029000000136A6808EB0014401CD358125956F89B
:10291000233003FB0211B842F1DB132000F084F8EE
:10292000002815D1002411E06A6809EB041102EBBC
:102930000410515808EB0413006856F82110D258BF
:10294000514300F061F8002802D1641CBC42EBDB6B
:10295000BDE8F087FFE7BDE8F0470021132000F055
:1029600063B82DE9F04105461E460F461046FEF7B6
:102970007BFB28B104681B2D11D01C2D1ED108E053
:102980004FF0FF320121284600F070F80120BDE829
:10299000F081011D2246384601F018F805E0021DBD
:1029A00023463146384601F083F8060006D0224619
:1029B0000121284600F05AF83046E8E7224628462A
:1029C000BDE8F041002100F051B870B50D46044655
:1029D0000968006801F0F4F908B1002070BD2068B2
:1029E0000021826C226002B92960816470BD000000
:1029F0000149081FFFF7E9BF500100200149081FE6
:102A0000FFF7E3BF5801002038B5024605480C46E1
:102A10006B468068FEF782F910B90099A14200D098
:102A2000012038BD2C0000200EB502ABCDE900011D
:102A300005486A4608218068FEF770F910B90299C6
:102A4000082900D001200EBD2C00002070B51446CE
:102A50000D46FFF7E9FF002807D1002C05D02946D5
:102A60002046BDE87040FFF7CFBF70BD1CB5CDE973
:102A700000126A460821FFF7E9FF1CBD2DE9F04F5F
:102A80008146C1EBC10021494FF0000A01EB00165D
:102A9000934606F110025346C6F810A029E0F068EC
:102AA000C3EBC30100EB8100016809BB0469D0F8E6
:102AB0000480C5681768D2F804C0916801EB07115B
:102AC0004CF8273017687F1C17604C604561A542A1
:102AD00005D9281B08605046C1F808A007E08768A0
:102AE00047443C1B0C6084682C1B8C608068C86069
:102AF0005B1C5B45D3DB1168C9F800109168C9F80D
:102B000004105168C9F80810BDE8F08F7004002067
:102B1000044AC1EBC10102EB011200211161016005
:102B200041607047700400202DE9FF410446487859
:102B30000E4600285DD07E20207060700320207437
:102B4000607400206061A061E06184F820000222CE
:102B500021463046FEF7CEF800284AD10122A11CBA
:102B60006846FEF75BF9024669463046FEF7C2F852
:102B700000283ED1307861686B460122029180B90D
:102B80000421002003AD02AF07EB010C491E1CF825
:102B900001CC05F800C0401C0428F5D3039802902E
:102BA0002AB1042202A91846FEF738F901E018609C
:102BB0000420024669463046FEF79CF8002818D1EA
:102BC00000250DE0A068012241196846FEF726F9AC
:102BD000024669463046FEF78DF8002809D16D1C83
:102BE0006068A842EED8022204F110013046FEF7D8
:102BF00081F804B0BDE8F0812DE9FF47806851F805
:102C0000048B0D4600680024D0F81090476823E03C
:102C1000102229466846FDF704FBD9F80400009904
:102C2000082300EB011110350A68009903EB01112C
:102C30004158039857F8200009B1022100E0012112
:102C40004843029E0199464301FB00203246294633
:102C5000FDF7E7FA3544641C4445D9DBBDE8FF873E
:102C6000401EB0F1807F01D3012070474FF0E0217A
:102C70004861054AF02082F8140D00208861072081
:102C800008610020704700000FE000E00348016881
:102C9000002902D00168491E016070470800002029
:102CA00030B593B030216846FDF7D4FA14210CA852
:102CB000FDF7D0FA19480025016841F08051016004
:102CC000006800F0805011901548016841F480417F
:102CD00001600068022400F48040119001200090FF
:102CE000000401908001CDE9064008AA0420A82133
:102CF00082E813000B906846FEF7ACFC0CA90F208D
:102D000081E831004FF4A0500F90E00210900521AF
:102D10000CA8FEF795FB13B030BD00004038024010
:102D2000007000400548016841F4700101600349EA
:102D30004FF00060803908607047000088ED00E0C7
:102D40000148FFF768B800006C01002010B54FF48F
:102D500000510348FEF7ACFA02490420087010BD88
:102D6000000C0240540000200148FFF754B8000056
:102D70002C020020F0B50268254D264E264FDFF8C4
:102D80009CC0274B4FF0804EA84209D0704507D019
:102D9000B04205D0B84203D0604501D0984203D17B
:102DA00022F070044A682243A8421BD0704519D013
:102DB000B04217D0B84215D0604513D0984211D018
:102DC000184CA0420ED0184CA0420BD0174CA04279
:102DD00008D0174CA04205D0164CA04202D0164C89
:102DE000A04203D122F44074CA6822434C6922F005
:102DF0008002224302608A68C2620A688262A84234
:102E000001D0984201D10969016301214161F0BDFE
:102E1000000001400004004000080040000C004099
:102E200000040140004001400044014000480140CE
:102E300000180040001C00400020004010B501F0C8
:102E40001F010123046A8B409C430462036A8A4089
:102E50001343036210BD10B5846842EA032224F4D0
:102E60007F440A432243826010BD0000F0B5026A2D
:102E700022F001020262026A43688469114E24F062
:102E800073050C68104F2C4322F002058A682A4310
:102E9000B04201D0B84205D122F00805CA682A43E1
:102EA00022F00402B04201D0B84205D14D6923F4AA
:102EB00040731D438B692B434360846149684163C0
:102EC0000262F0BD0000014000040140F0B5026A5A
:102ED00022F010020262026A436884690D6824F4D9
:102EE000E64444EA05248D6822F0200242EA0512F5
:102EF0000F4D104EA84201D0B04206D1CF6822F04B
:102F0000800242EA071222F04002A84201D0B042F9
:102F100007D14D6923F4406343EA85038D6943EA91
:102F2000850343608461496881630262F0BD0000EB
:102F30000000014000040140F0B5026A22F48072F2
:102F40000262026A4368C46922F4007224F07305C5
:102F50000C68124E2C438D6842EA05220E4DA842A1
:102F600001D0B04206D1CF6822F4006242EA0722C3
:102F700022F48062A84201D0B04207D14D6923F407
:102F8000405343EA05138D6943EA05134360C46166
:102F90004968C1630262F0BD0000014000040140C5
:102FA00030B5026A22F480520262036A4268C46940
:102FB0000D6824F4E64444EA05248D6823F40053A4
:102FC00043EA0533084DA84202D0084DA84204D177
:102FD0004D6922F4804242EA85124260C461496828
:102FE0000164036230BD00000000014000040140A4
:102FF00030B40D4D002105F108032C6853F8212051
:10300000824202D155F8214003E0491C89B20229CD
:10301000F4D3824205D1D4F88000002801D030BC1E
:10302000004730BC704700001C01002010B502684A
:10303000936823F070044B68234323F007040B6864
:10304000234393604A6812F00F0F30D11211082AFF
:103050002DD2DFE802F02C2C2C2C0B2127040B693D
:10306000D1E902210068FFF7F6FE20E00A68052A90
:1030700010D00268146A136A23F001031362026815
:103080009369096923F0F00343EA01119161006833
:1030900004620CE0012010BD0A698968006800F034
:1030A00008F804E00A698968006800F053F8002015
:1030B00010BD10B5046A036A23F00103036283693B
:1030C00023F0F00343EA021324F00A020A43836167
:1030D000026210BD70B5046A24F0010404628469C0
:1030E000056A154EB04214D0B0F1804F11D0134E86
:1030F000B0420ED0124EB0420BD0124EB04208D0A9
:10310000114EB04205D0114EB04202D0104EB04226
:1031100003D124F00304144301E044F001041A072E
:1031200024F0F00444EA126225F00A0301F00A01D7
:1031300019438261016270BD00000140000400403B
:1031400000080040000C0040000401400040014025
:103150000018004010B5036A23F01003036284696D
:10316000036A24F4704444EA023223F0A00343EAE1
:1031700001118261016210BD30B5046A24F01004AF
:1031800004628569046A25F4407545EA022222F446
:1031900070454FF6FF7202EA033224F0A0032A437F
:1031A000A02404EA011119438261016230BD10B507
:1031B000806B0021C185C184FFF700F810BD016854
:1031C000CA6822F49072CA6001684A6922F001025A
:1031D0004A61202180F83A10704710B590F83A10F3
:1031E000222901D0022010BD8168B1F5805F11D085
:1031F0000169002901681FD0496801F07F03816AD5
:103200004A1C82620B70C18D491E0904090CC185DC
:1032100018D02BE00269816A002A0268526805D042
:10322000D2B20A80816A491C8162ECE7C2F30802CB
:103230000A80816A891CF7E74A68816A4B1C8362AD
:103240000A70E0E70168CA6822F02002CA600168DB
:10325000CA6822F48072CA6001684A6922F00102D9
:103260004A61202180F83A10FFF7EEF8002010BDE7
:103270002DE9F041044600680169E26821F44051FB
:1032800011430161A1682069E2690143606910434B
:1032900001432068C26849F20C639A430A43C26042
:1032A00020684169A26921F4407111434161E069DC
:1032B000192764253226B0F5004F354A3549206874
:1032C0004FF0000806D0884201D0904236D1FEF778
:1032D00081F935E0884201D0904202D1FEF77AF9B7
:1032E00001E0FEF767F961684A18A0FB070148EBA7
:1032F0000803FCF765FF0146B0FBF5F00201B1FBE6
:10330000F5F06FF01803584301EB800006EBC000A6
:10331000B0FBF5F000F0F80002EB4002B1FBF5F075
:10332000584301EB800006EBC000B0FBF5F000F065
:103330000700216810448860BDE8F081FEF73AF983
:1033400001466068830F8200A1FB0701FCF738FF8C
:103350000146B0FBF5F06FF01802504301EB80001E
:1033600006EB0010B0FBF5F000F0F002B1FBF5F059
:1033700002EB0012B1FBF5F06FF01803584301EBBC
:10338000800006EB0010B0FBF5F000F00F00D0E776
:10339000001401400010014090F83910212901D09B
:1033A000022070478168B1F5805F016A0BD04A1C2A
:1033B0000262026809785160C18C491E0904090C37
:1033C000C1840ED017E009880268C1F3080151607A
:1033D00001690029016A02D0491C0162ECE7891CDD
:1033E000FBE70168CA6822F08002CA600068C16811
:1033F00041F04001C1600020704700000148FEF725
:10340000FFBE0000EC01002070B5114AC0EBC00007
:1034100002EB001300240F48224601250470DC64EF
:103420000DE0D868C2EBC20600EB86004668002EAD
:1034300004DD8668C660066105604461521C8A42EC
:10344000EFDB9C641C6602209C6683F8200070BD44
:1034500070040020500000202DE9F35F0D46C1EB01
:10346000C50087494FF000092DED020B90B001EB2C
:10347000001A1298DAF80C100AF12004C0EBC00010
:1034800001EB8007207802281ED1206B042670B142
:1034900061681298814212D1284600F0C9F958B1EA
:1034A000206930B1032020700120A0620CE026705A
:1034B0000AE02670A06CF8E72078022804D1606C3E
:1034C000002801DD012000E0002083462078042848
:1034D00002D0BBF1000F79D07868002877D0F86867
:1034E0000D90142104A8FCF7B5FE0895BBF1000F60
:1034F00014D0D4E91101814210D1D7E901010A1891
:1035000038693B6940680830184438613869801A66
:1035100001D408443861A06C401EA064142109AB9A
:103520000DAA384600F0AEF85FEA00094FD10598C1
:103530006B460C3005900DAA0821384600F0A2F821
:103540005FEA000943D1059810A908300590DDE92C
:103550000020FCF766FE039830B1009810A90144E2
:10356000DDE90220FCF75DFE002058E0DAF80810E3
:1035700001EBC000016891F9001049B303294CD058
:103580004168129851F820005FEA000845D006987B
:103590000421401C06906B460DAA384600F072F8D4
:1035A0005FEA000961D105980EA9001D0590DDE9CB
:1035B0000020FCF736FE039830B100980EA90144B4
:1035C000DDE90220FCF72DFE002622E04AE04CE077
:1035D00023E0D8F804006B4600EBC6050DAA384678
:1035E000696800F04FF85FEA00093ED10598696804
:1035F00008440590009A29680198FCF712FE039888
:1036000030B1286800990144DDE90220FCF709FE89
:10361000761CD8F80000B042DBDC0E98401C0E90FF
:10362000DAF804108142A1DC0698F0B11A20049067
:1036300012980790DDE9092004A9FCF7F2FD0C9827
:1036400030B1099804A90144DDE90B20FCF7E9FD3C
:103650000D98F86000203860BBF1000F08D0A06C16
:10366000401CA06414B0BDE8F09FBBF1000FF9D17D
:10367000B9F1000FF6D00120E06205202070F1E7DB
:1036800070040020F0B5D0E9015700247E191568B8
:10369000D0F810C0A646654504D8D0F800C0BCF1EB
:1036A000000F22D0D0F810C0ACEB070C771BBC4445
:1036B0008C451EDB0D44B54207D219601068C3E982
:1036C000010EC3F80CE010680BE01F60C91B156801
:1036D000C3E90151002901DD856800E00025DD60B6
:1036E0008068084410602046F0BD0069401B884295
:1036F000E3DA0124F7E700000B4AC1EBC10102EB5A
:103700000111C0EBC000C968084A01EB800001212B
:103710001170416901610169C268914201D10121C1
:1037200000E000210160704770040020500000207C
:10373000F7B5174601990646194AC1EBC10002EBDD
:10374000001414F8205F042D05D0052D03D0304659
:10375000FFF7DEF9FEBD3046FFF7DAF93A463046AC
:103760000199FFF78BF930680028F3D1052DF1D1CD
:103770000C48002501AA0570E0684FF00401401CC8
:1037800006D01F20FFF762F90120A5622070FEBD60
:103790002020FFF75BF93946019800F00BF9FEBDD8
:1037A00070040020500000200B49C0EBC00001EB6A
:1037B00000104FF0FF3190F82020062A08D2DFE8F1
:1037C00002F0070303030308C162052180F82010FB
:1037D0007047C162704700007004002010B5134BA1
:1037E000C0EBC00203EB021414F8202F002A1BD0F8
:1037F000012A07D1A26A531CA362E3689A4213D13B
:10380000FFF702FE207803280ED1A06A411CA162B6
:103810002169884208DBA06CA06204202070606CE3
:10382000002801DD0120E06410BD000070040020CC
:103830002DE9F05F4649C0EBC00001EB00152DED0E
:10384000028B4FF00008EE6D203579E0696B01EBDB
:10385000C80778684FEAD00A286CE0B395ED088B6A
:103860000024D7F8009060E0686948B309EBC40B06
:1038700053EC182B9BED000B51EC100BFCF708FFE1
:103880000AD806EBC40053EC182B90ED000B51EC5A
:10389000100BFCF7E5FE41D39BED000B53EC182B0E
:1038A00051EC100BFCF7F4FE0AD206EBC40053EC0B
:1038B000182B90ED000B51EC100BFCF7D1FE2DD026
:1038C000A86980B309EBC40B53EC182B9BED000BDC
:1038D00051EC100B00E02AE0FCF7C2FE0AD206EB26
:1038E000C40053EC182B90ED000B51EC100BFCF7BF
:1038F000CFFE13D99BED000B53EC182B51EC100BA2
:10390000FCF7AEFE10D106EBC40053EC182B90ED83
:10391000000B51EC100BFCF7BBFE05D20120BDECF7
:10392000028BBDE8F09FFFE7641C54459CDBD7E9A0
:1039300000123046FCF775FC06EBCA0608F10108D8
:10394000296B414582DC012028640020E7E7000064
:103950007004002070B51449C0EBC00001EB0014E6
:1039600004F150060025606D203410B100F000FA1B
:103970007560E06B10B100F0FBF9E5632570A560A0
:103980000120E560C4E904509FED080BA56184EDBA
:10399000080BA562E56225636563A563256465641C
:1039A000A564E56470BD0000700400200000000004
:1039B00000000000044BC0EBC00203EB0212002326
:1039C00082F8203000F014B9700400202DE9FF5F68
:1039D00092468346C2EBCA00344A4FF0000802EB1D
:1039E000001451F8040B606251F8040BA06251F806
:1039F000080BE06251F8040C206351F8040B2065B9
:103A000020340F46002828DD04F13005C00000F006
:103A10009DFA686008B1002616E04FF001083DE00D
:103A20006868102200EBC60939466846FCF7F9FBC6
:103A30004A46694658461037FEF7D7FDA968D9F8B7
:103A40000400761C0844A8602868B042E8DCA86836
:103A500000F07CFAE0630028DFD057F8040BA8B12F
:103A6000022813D000216161012811D002280FD053
:103A70000020A061386820627868606220690021B7
:103A8000002807DA40422161606404E00121EAE78E
:103A90000120EEE76164B8F1000F02D05046FFF755
:103AA00059FF04B04046BDE8F09F000070040020BC
:103AB0002DE9FF4F9B4607463C4981B0C3EBCB0045
:103AC00001EB001500922B6000245846029900F08B
:103AD0008FF80098082150F8042B6A600090104677
:103AE000FCF7D1FBA86008B100260CE001243BE004
:103AF000A8686B4600EBC60238460299FEF71EFD29
:103B0000040031D1761C6868B042F1DC1C210298B7
:103B1000FCF7B9FB4FF000084646C246E86031E0CA
:103B20000098C6EBC6014FF0000750F8049B0090C8
:103B3000E86800EB8104B9F1000108DB4FF00100F7
:103B4000206006DD084600F001FAA06018B90127E0
:103B500008E0C4F808A0C4F80490A068E060206100
:103B6000C4F814A03C0007D05846029900F040F871
:103B700005B02046BDE8F08F5FEA090000D00120C3
:103B80008044761C02988642CADB4FEA0810C5F8CA
:103B900010A000F0DBF9A8610028A7D04FEA880048
:103BA00000F0D4F968610028A0D0E1E7700400209B
:103BB0002DE9F04106460C490C4FC0EBC60001EB65
:103BC0000014B85D002520B170212046FCF742FBAF
:103BD000BD556560A560E560A56130466561BDE8DD
:103BE000F041FFF7B7BE0000700400205100002034
:103BF0002DE9F047884681462449C0EBC90001EB16
:103C00000015686800283ED0002616E0042101EB6C
:103C1000C601002447580AE057F8240030B1406834
:103C200000F0A6F857F8240000F0A2F8641C444500
:103C3000F2DB384600F09CF8761C6868B042A86851
:103C4000E4DC00F095F8E86878B10024082607E085
:103C5000C4EBC40106EB8101405800F089F8641CF4
:103C6000E8684445F4DB00F083F8A86900F080F8C8
:103C7000686900F07DF84846FFF76CFE4846BDE8ED
:103C8000F047FFF795BFBDE8F08700007004002003
:103C90000949C0EBC00001EB001090F82010062984
:103CA00009D2DFE801F0080808080303052180F8BD
:103CB0002010891FC1627047700400202DE9FE4367
:103CC00080461A4800260F46007800282BD00A4666
:103CD0001DE0002417E0019800EB0415D5E9001061
:103CE000FEF792FE06001BD1A968002904DDE868F2
:103CF000FEF78AFE060013D10298414650F82400D0
:103D0000FFF7FAFC641C0098A042E4DC3A46414606
:103D10006846FFF70DFD00980028DADC002E02D07F
:103D20003846FDF799F8BDE8FE8300002C0000201E
:103D30000907090E002804DB00F1E02080F80014D8
:103D4000704700F00F0000F1E02080F8141D70476C
:103D500002E008C8121F08C1002AFAD17047704754
:103D6000002001E001C1121F002AFBD170470000B2
:103D700010B5002821D0114B0022001F196803E064
:103D8000814203D80A4649680029F9D152B1136823
:103D9000841A9C4204D1006818441060104602E066
:103DA000506000E0186039B102680B1A934203D1E9
:103DB0000B681A4402604968416010BD640100202C
:103DC000084301D000207047012070470248016974
:103DD000C068FFF7F5BF000040010020024881697C
:103DE0004069FFF7EDBF0000400100202DED028B80
:103DF00082B0FDF777FAFEF753FFFEF72FFCFEF7D0
:103E0000B1FCFEF773FC49484749002401604FF4B8
:103E1000E131C0E901140C21C460C0E904418461AE
:103E2000C461FEF777FA424E3068FCF7D3FB9FED92
:103E3000418B53EC182BFCF74DFBFCF7F7FBFEF71F
:103E40000FFF3E4D012740B36F604FF08078306820
:103E5000FCF7C0FB894606466868401C686049EC70
:103E6000106B53EC182B51EC100BFCF733FBFCF7E9
:103E7000DDFB6968B0FBF1F04045EDD249EC106B19
:103E800053EC182B51EC100BFCF724FBFCF7CEFB8A
:103E90006968B0FBF1F0FEF7E3FE6968A846A96027
:103EA000264E00203454401C0128FBDB002108462C
:103EB00000F0B8FB00F080F8214D2868383000F0A1
:103EC000B5FB012000F099FA8DF8004028686A4699
:103ED0000121406800F0A8FA9DF8000010B12868A0
:103EE00080F8407000F088FAD8F8081040460029A1
:103EF000FAD141688160307810B1296811A008605A
:103F000037708DF8004028686A460121406800F04B
:103F100077FA9DF8000010B1286880F8407000F032
:103F200077F93470E0E7000000480040EC01002021
:103F3000180000200000000000408F40000000201A
:103F4000904800084F76657272756E00F0B50B30C0
:103F5000154D20F007010024144A0FE003688B423E
:103F60000BD38B4205D95E1A43184768C3E9006733
:103F700000E04368136002C004E0021D10680028DE
:103F8000ECD12046002802D1286808B10020F0BDFD
:103F9000064A07481060074A121A22F00702C0E9D1
:103FA000002401202860D7E7680100206401002078
:103FB0004C070020480900202DE9F05F7F48482188
:103FC0004068FCF747F99FED7E0B7C48406880ED28
:103FD0000E0B9FED7D0B79487849406880ED0C0B06
:103FE00049687B48886075497A484968C860734960
:103FF00079484968086171497848496848616F495A
:1040000077484968486076497648086075496B4842
:104010000860A1F114004860684968484968406830
:10402000496818308860654964484968406849684B
:1040300008304860614961484968406849682030F3
:10404000C860684800211438C16101620170644889
:1040500028211430FCF7FEF858496148634F49683D
:104060001430DFF8949188615D490E201431DFF837
:1040700084B108605B485E4B10304860383088601F
:104080005838C860083008615949574840F24735E8
:104090000A885B4E002447F8220049F822B0521CDF
:1040A0001A804FF47A730560C0E903633223C0E9D4
:1040B0000634046263224462DFF84081C0E9018271
:1040C0004FF0010A80F814A0092444758475C47562
:1040D0004FF0000CC0F880C0C0F884C0C0F888C0A1
:1040E0005946C0F88CC0C0F890C00868856208685E
:1040F000C262CA600868436301215846FDF7FFFCAD
:104100003B4940483A4A098847F821003E4F49F860
:104110002170491C11800021C0E902168161C16132
:10412000016206614162C0E90058A0F85C10A0F885
:104130005E10A0F86010A0F8621080F87CA0C16248
:10414000016341630521017544758475C4750021BF
:10415000C0F88410C0F88810C0F88C10C0F8901017
:104160002A49C0F880103868856239684FF6FF70B8
:10417000C862F8603868016821F4407101603868ED
:10418000016801600020386101213846FDF7B7FC65
:10419000584690F83D100229FBD000211548FDF744
:1041A000B1FF97F83D000228FBD000211648FDF72B
:1041B00007FEBDE8F05F1448FDF790BC8C4800088E
:1041C0000000000000002440FCA9F1D24D62503FE5
:1041D00085EAE53804057E028DC27BA5484799C66D
:1041E0005005002068000020D80500201C01002098
:1041F00018010020AC0100202401002000BD0105B1
:10420000A08601006C0600206C0100204D2D0008E6
:1042100070B5524A00202DED048B1178504C514D51
:10422000032904D2DFE801F003020200032010702A
:10423000A069FCF7BEF995ED001B53EC112BFCF7C0
:104240000FFA23D095ED008B51EC180BFCF7CFF94A
:104250009FED450BA06153EC102B51EC180BFCF7B4
:1042600017FA13D842480468E06AFCF7B3F995EDF1
:10427000001B53EC112BFCF7BBF89FED3E1B53ECDE
:10428000112BFCF727F9FCF7D1F960633B493C4C53
:10429000C86A10B1CA68B2FBF0F000EE100A0863F9
:1042A0002E48B8EE400A1C3080ED000A91ED0D0A50
:1042B000B8EE400A80ED010A012000F0B3F8606812
:1042C00090ED080B002000F0ABF860689FED2D1B0F
:1042D00090ED0E0B53EC112B51EC100BFCF7C0F9C9
:1042E0001DD060689FED290B90ED088B53EC102BCF
:1042F00051EC180BFCF77CF841EC190B606853EC9F
:10430000182B90ED0E0B51EC100BFCF76BF853ECE7
:10431000192BFCF7A5F902D861681EA00860606837
:1043200090F8400010B161681AA008606068616888
:10433000806A401C8862FCF74DF941EC100B606804
:1043400090ED0C1B51EC100B53EC112BFCF750F8BB
:104350006268C2E90801BDEC048B70BD5400002006
:10436000D8050020300100200000000000000000FF
:10437000AC01002000000000000059406C06002045
:104380008C480008000000000000F0BF00000000A2
:104390000000B03C53696D756C6174696F6E206686
:1043A000696E69736865640070B50E4C9FED0E0B05
:1043B000054653EC102B94ED020B51EC100BFCF75F
:1043C00067F90AD99FED0A0B53EC102B94ED020B01
:1043D00051EC100BFCF744F903D194ED020B85ED81
:1043E000000B70BD40000020000000000000000035
:1043F000000000000000F0BF704700F019B9000095
:10440000064B10B51B780C46042B06D000F02AF999
:104410002046BDE8104000F021BA10BD4000002049
:1044200000F0FAB900F00FBA2DE9F04114460F463A
:104430008046FCF7EBFC0E4D98B10E4E686868B1F3
:104440000FE03146002000F005F92246394640468B
:1044500000F008F9384600F001FAEFE7207800286C
:10446000EFD02878042801D003202870BDE8F0811F
:1044700040000020D8B80500F8B5074600201446D3
:104480000D46461E0EE0A64201D2324600E022460C
:104490006B462946384600F03BF8411C04D0009991
:1044A000641A0D44002CEED1F8BDF8B50746002083
:1044B00014460D46461E0EE0A64201D2324600E0EA
:1044C00022466B462946384600F06EF8411C04D05F
:1044D0000099641A0D44002CEED1F8BD014900206A
:1044E000887070471C000020074810B5054900225D
:1044F0004160C0E90212012282700448FDF77AFF90
:10450000012010BD6C0200201C000020EC010020E6
:104510002DE9F0414FF000084FF40070C3F800801F
:10452000824200D302461D4CD4E90150A8421AD061
:10453000DFF86CC00CF5007710F8016B01F8016B27
:10454000A060B84201D1C4F808C01868A2F1010205
:10455000401C1860E068401EE06004D0A068A842DB
:1045600001D0002AE8D1A078A8B90120A0700246A5
:1045700029460C48FDF73EFF68B10A4884F80280DE
:1045800090F8380038B90748FDF734FE222802D1E8
:104590000448FDF7BFFE0020BDE8F0811C000020AC
:1045A0006C020020EC0100202DE9F0411B4C00279B
:1045B0001D461646277092B219481F60FDF778FF16
:1045C00090B91748FDF716FE6070207848B9144876
:1045D000FDF710FE2128F8D01148FDF70BFE232827
:1045E000F3D0207800B12E60A078A0B90120A0708F
:1045F00002460B486168FDF7FDFE60B10848A770F0
:1046000090F8380038B90648FDF7F4FD222802D1A9
:104610000348FDF77FFE0020BDE8F0811C0000206C
:10462000EC01002000210846FCF716BAFFF7BCBEDB
:1046300070B507488068FCF7DBF9050006D1002457
:104640002046FFF7B5FA641C022CF9DB284670BD42
:104650002C0000200A46014601488068FCF7CAB9D0
:104660002C0000202DE9F74F684F824686B038783D
:104670004FF0000B40B93946B868FCF7BCF9002888
:104680007BD13878002878D04FF000090DF104086C
:1046900003AD4C460826CDF8009008EB0403311B0F
:1046A0006A46B868FCF7F6F820B90099641801D09A
:1046B000B442F2DB0099002901DD012100E0002174
:1046C000297005007ED19DF80C00002855D078781F
:1046D00008B1019802E04846CDF804900124102862
:1046E00071D2DFE800F029518E892D4D161E1283FC
:1046F000788089898908DAF80C00082104AA90EDED
:10470000000B15208DED040B6AE01D20079A02991D
:104710006FE03E485146C01C00901B20079B029A48
:1047200007E03A484FF0FF33001D009051461C202F
:10473000029AFEF716F95EE05046FEF765F85AE079
:104740000298C8B15546FCF78FFC01000CD02846F2
:10475000FEF752FA6A4604211220CDF80090FEF7C7
:1047600075F988BB08E008E06A460421122000942D
:10477000FEF76CF90120F4E7BC7009B0BDE8F08FDA
:104780005046FEF7ADF836E0002211461120FEF744
:104790005DF9050032D11E48DDF81C800024067842
:1047A0002046FFF775FA1EB141462046FFF786FA0C
:1047B00041462046FFF71CFA641C022CF0DB87F808
:1047C000009002E01DE017E018E087F80190B8685B
:1047D000FCF752F810E00F48046000221146162042
:1047E000FEF734F907E008980470C6E71E20079A20
:1047F0000299FDF7E5FF0546002DBED0BBF1000F85
:10480000BBD00798FCF728FBB7E700002C0000207E
:10481000500000204400002070B505462DED028BAD
:10482000B0EE408AF0EE608A00242146B0EE480ADD
:10483000F0EE680A2846FEF70FFE641C022CF4DB3B
:10484000BDEC028B70BD70B505460024294620469C
:10485000FEF7C4FF641C022CF8DB70BD70B5054682
:10486000002429462046FFF729FA641C022CF8DBB5
:1048700070BD0000000000000000010203040607F4
:10488000080900000000010203040000010000000C
:10489000900500207265616C33325F5400000000A7
:1048A00075696E7433325F5400000000696E7433B2
:1048B000325F540075696E7431365F540000000039
:1048C000696E7431365F540075696E74385F5400D8
:1048D000696E74385F5400007265616C5F5400004B
:1048E00066636E5F63616C6C5F540000626F6F6C37
:1048F00065616E5F54000000616374696F6E5F54A0
:1049000000000000706F696E7465725F54000000F3
:1049100074696D65725F75696E7433325F70616959
:10492000725F5400696E745F540000004C490008C7
:10493000000000206C01000000080008CC490008BD
:104940006C010020DC0B0000603D0008419A01046E
:104950008210032524F42934B112C04A0112320214
:1049600022E82A200E13080102102032089A047847
:10497000293029042914691869242904290C2904D7
:1049800013D8481B0894041AD0041AC8041AC00487
:104990001AB4041AAC041AA0041AEC041AE00413A2
:1049A00024491B0804041AF80C1A10085A708C6960
:1049B0009C1A5410290869C49A30A4D9D40113D37D
:0C49C000494012071B20240401200000C5
:040000050800018965
:00000001FF
