:020000040800F2
:10000000680A00209D010008A5010008A70100085A
:10001000A9010008AB010008AD01000800000000C4
:10002000000000000000000000000000AF01000818
:10003000B101000800000000B3010008A11D000884
:10004000B7010008B7010008B7010008B7010008B0
:10005000B7010008B7010008B7010008B7010008A0
:10006000B7010008B7010008B7010008B701000890
:10007000B7010008B7010008B7010008B701000880
:10008000B7010008B7010008B7010008B701000870
:10009000B7010008B7010008B7010008B701000860
:1000A000B7010008B7010008B7010008B701000850
:1000B000B7010008551E0008B7010008B701000885
:1000C000B7010008B7010008B7010008B701000830
:1000D000B7010008B7010008B70100087D2B000830
:1000E000B7010008B7010008B7010008B701000810
:1000F000B7010008B7010008B7010008B701000800
:10010000B7010008B7010008B7010008B7010008EF
:10011000B7010008B7010008112300081D230008DB
:10012000B7010008B7010008B7010008B7010008CF
:10013000B7010008B7010008B7010008B7010008BF
:10014000B7010008B7010008B7010008B7010008AF
:10015000B7010008B7010008B7010008B70100089F
:10016000B7010008B7010008B7010008B70100088F
:10017000B7010008B7010008B7010008000000003F
:10018000B7010008B7010008DFF80CD000F06AFBE7
:1001900000480047A1370008680A00200648804749
:1001A00006480047FEE7FEE7FEE7FEE7FEE7FEE75C
:1001B000FEE7FEE7FEE7FEE7391E000889010008BA
:1001C0002DE9F05F0546002092469B46884606468C
:1001D000814640241BE0284641464746224600F01F
:1001E00066FA53465A46C01A914110D31146184632
:1001F000224600F04DFA2D1A67EB01084F462246C1
:100200000120002100F044FA17EB00094E41201EA6
:10021000A4F10104DFDC484631462A464346BDE8E6
:10022000F09FD2B201E000F8012B491EFBD27047CB
:100230000022F6E710B513460A4604461946FFF7B2
:10024000F0FF204610BD2DE9FE4F804681EA0300F5
:10025000C00F0C46009021F0004123F00045B8EBA0
:100260000200A94105D24046214690461C460B4655
:10027000024623F00040104347D0270DC7F30A0081
:10028000C3F30A510290401A019040286BDAC3F37D
:10029000130040F4801B0098924620B10023D2EB5B
:1002A000030A63EB0B0B01985946C0F1400250461C
:1002B00000F0EEF906460D4650465946019A00F008
:1002C00006FA10EB08006141002487EA115284EA23
:1002D000E7731A4340D0009A62B3019A012A4FEAA9
:1002E000075215DC001B61EB02014FF0004202EAED
:1002F0000752CDE90042001C41F5801132462B46E1
:1003000000F006FA03B0BDE8F08F40462146F9E759
:10031000001B61EB0201001C41F5801300185B41DA
:100320002018A2F5001747EB030140EAD570B61973
:100330006D4111E06D084FEA360645EAC0754FEA97
:100340000752001B61EB0201001C41F580114908B6
:100350004FEA30000019514132462B4603B0BDE848
:10036000F04F00F0C6B90098012240000023D0EB06
:10037000020263EBE073009821464FEAE074B8EBA9
:10038000000061EB0401E9E783F000435BE781F0E3
:10039000004158E72DE9FE4F81EA030404F00044D0
:1003A00021F0004100944FF0000B23F0004350EA8D
:1003B00001045ED052EA03045BD0C3F30A54C1F3D4
:1003C0000A552C44A4F2F3340194A0FB0254C1F367
:1003D000130141F48011C3F3130343F4801301FBB1
:1003E000024400FB034E840A970A44EA815447EA18
:1003F0008357A4FB076802958D0A05FB07854FEA22
:10040000932C04FB0C542705029D4FEA065847EA3B
:100410001637B5EB08056EEB070C870E920E47EA10
:10042000811742EA8312A7FB0201B6EB0B0164EBD2
:1004300000042B0D43EA0C335E1844EB1C50DA46E3
:100440005146E7FB0201C5F313044FEA0B3343EABD
:1004500014534FEA0432019C43EA0603A4F10C044E
:100460000294009CCDE900B400F052F903B0BDE85D
:10047000F08F00200146F9E72DE9F04D81EA0304F1
:1004800004F0004B21F0004514464FF0000A23F021
:10049000004150EA050220D054EA01021DD0C5F304
:1004A0000A570246C5F31303C1F31300C1F30A56FA
:1004B00040F4801543F48013A7EB0608101BD646C2
:1004C00008F2FD3873EB050002D308F1010801E0E2
:1004D00092185B41B8F1000F03DA00200146BDE835
:1004E000F08D00204FF48011064684460EE0171B65
:1004F00073EB050705D3121B63EB050306434CEAB8
:10050000010C49084FEA300092185B4150EA01079C
:10051000EDD152EA030012D082EA040083EA050119
:10052000084305D0101BAB4106D20122002306E090
:1005300000224FF0004302E06FF0010253101AEB6B
:1005400006004CEB085110EB0A0041EB0B01BDE833
:10055000F04D00F0CEB80EB5C10F80EAE07008444F
:10056000CA07002140F233438DE80E000A460B46CD
:1005700000F0CEF803B000BD0EB540F23341029159
:100580000021CDE900110A460B4600F0C1F803B086
:1005900000BD70B5C1F30A5201F000450024C1F35B
:1005A000130140F2FF3341F480119A4201DA002036
:1005B00070BD40F233439A42A2F2334203DC52420E
:1005C00000F075F800E090402C43F1D0404270BD3F
:1005D000C1F30A5210B5C1F3130140F2FF3341F4E5
:1005E00080119A4201DA002010BD40F233439A4252
:1005F000A2F2334203DC524200F059F810BD9040A1
:1006000010BD000030B5041E71F1000404DB4FF092
:100610000044404264EB0101141E73F1000405DB49
:100620001C464FF00043524263EB04038B4208BF69
:10063000824230BD30B5041E71F1000404DB4FF07E
:100640000044404264EB0101141E73F1000405DB19
:100650001C464FF00043524263EB0403994208BF2B
:10066000904230BD30B50B460146002020220124C7
:1006700009E021FA02F59D4205D303FA02F5491B70
:1006800004FA02F52844151EA2F10102F1DC30BD86
:10069000202A04DB203A00FA02F100207047914042
:1006A000C2F1200320FA03F3194390407047202A37
:1006B00004DB203A21FA02F00021704721FA02F30C
:1006C000D040C2F120029140084319467047202AC9
:1006D00006DBCB17203A41FA02F043EAE07306E06A
:1006E00041FA02F3D040C2F120029140084319467A
:1006F000704710B5141E73F1000408DA401C41F174
:10070000000192185B411A4301D120F0010010BD95
:100710002DE9F04D92469B4611B1B1FA81F202E00B
:10072000B0FA80F220329046FFF7B2FF04460F463F
:1007300040EA0A0041EA0B0153465A46084313D0E7
:10074000114653EA010019D0C8F140025046FFF7A4
:10075000AEFF05460E46504659464246FFF798FF03
:10076000084305D0012004E020463946BDE8F08D5D
:100770000020054346EAE0762C4337430A98630598
:10078000E40AA0EB08000022FD0A44EA47540A30BC
:1007900002D500200146E9E7010510196941DDE9AC
:1007A000084500196941BDE8F04DA2E72DE9FE4F6B
:1007B000C3F30A5701F000450024C1F30A56C3F3FE
:1007C0001303C1F3130143F4801312EB020AA6468C
:1007D00041F48011009543EB030CA7F1010B16E0E7
:1007E000B0EB0A0061EB0C01071E71F1000707DA9C
:1007F0004FF00008D0EB080085F0004568EB0101E0
:10080000171A73EB0107EBD3761E001849415E45BA
:10081000F6DA50EA010209D0CDE900E500221346DC
:100820000296FFF775FF03B0BDE8F08F20460099F0
:10083000F9E7C1F30A52C1F3130140F2FF3341F467
:1008400080119A4202DA00200146704740F2334399
:100850009A42A2F2334202DC5242FFF728BFFFF76E
:1008600017BF0000064C074D06E0E06840F00103AA
:1008700094E8070098471034AC42F6D3FFF788FCA1
:10088000C43D0008E43D000890F83510022903D06B
:100890008021416501207047052180F835100068EE
:1008A000016821F001010160002070472DE9F84F37
:1008B000DFF880B100224FF003094FF00F0A0BF16F
:1008C000040E01250B6895402B40AB4272D14C6859
:1008D000012C05D0022C03D0112C01D0122C10D1E8
:1008E0008668540009FA04F7BE43CF68A74037432F
:1008F000876046680C79AE43C4F3001494403443D7
:100900004460C468570009FA07F58E68AC43BE40DE
:100910002643C6604C68022C01D0122C12D1D40898
:1009200000EB840CDCF820605407E40E0AFA04F8AB
:1009300026EA0806D1F8108008FA04F848EA060802
:10094000CCF820800468AC430D7905F00305BD4068
:10095000254305604C68E40065D5374C256845F4AF
:1009600080452560246822F0030504F48044009447
:10097000324C2E19D6F808789407250F0AFA05F498
:10098000A7432F4CA04201D1002424E02D4CA042CB
:1009900001D101241FE02C4CA04201D102241AE015
:1009A0002A4CA04201D1032415E0294CA04202D1D7
:1009B000042410E037E0274CA04201D105240AE0CE
:1009C000254CA04201D1062405E0244CA04201D1CF
:1009D000072400E00824AC403C43C6F80848DBF894
:1009E00000405D464E689C43F60300D51C432C60D6
:1009F000DEF8004075464E689C43B60300D51C43A4
:100A00002C600C4D08352C684E689C43F60200D5CE
:100A10001C432C60074D0C352C684E689C43B60275
:100A200000D51C432C60521C102AFFF44AAFBDE8CD
:100A3000F88F0000003C0140443802400030014083
:100A4000000002400004024000080240000C024086
:100A5000001002400014024000180240001C024036
:100A6000426931EA020200D10904816170470AB18A
:100A7000816170470904FBE7014880687047000006
:100A80000C000020024881680278114481607047A0
:100A90000C0000200B4810B5016841F400710160A2
:100AA000016841F480610160016841F48071016076
:100AB000032000F08BF8002000F006F800F03EF86C
:100AC000002010BD003C024010B5014688B0002255
:100AD000362000F05BF8362000F04AF81348002476
:100AE000016841F010010160006805A900F01000E4
:100AF0000690684600F016F900F034F90C49400001
:100B0000B0FBF1F10C480B4A491E026040F2E7329B
:100B1000C0E90324C0E9011400F062FB10B1012018
:100B200008B010BD044800F0C5FBF9E740380240AA
:100B300040420F0000100040640100200B4882B0CA
:100B4000016841F480410160006800F48040009039
:100B50000648001F016841F080510160006800F004
:100B600080500090072002B000F030B844380240B6
:100B7000002809DB00F01F0201219140400980009C
:100B800000F1E020C0F8001170470000F0B40E4BF7
:100B90001B68C3F30223C3F10704042C00D9042407
:100BA0001D1D072D01D2002300E0DB1E012606FAE1
:100BB00004F56D1E0D409D409E40761E164045EA90
:100BC0000601F0BC02F03EB80CED00E0064A00F071
:100BD000070110684FF6FF03184040EA012003495F
:100BE00008431060704700000CED00E00000FA05BB
:100BF0002DE9F0470D46040065D0DFF81491D9F8CF
:100C00000000EFB200F00F00A84207D289F8007090
:100C1000D9F8000000F00F00A84254D120683D4EE2
:100C2000810712D5400703D5306840F4E0503060AA
:100C30002078000703D5306840F4604030603068A9
:100C4000A16820F0F000084330602078C0072DD064
:100C5000304960680839012812D0022813D00328CF
:100C600011D00968890700292DDA316821F00301C4
:100C700001433160FFF700FF804641F2883A0EE001
:100C800009688903EFE709688901ECE7FFF7F4FEDB
:100C9000A0EB0801514502D90320BDE8F087306878
:100CA000616800F00C00B0EB810FEFD1D9F80010B3
:100CB000484601F00F01A94207D90770006800F00B
:100CC0000F00A84201D00120E7E72078400705D5B2
:100CD0003068E16820F4E050084330602078000775
:100CE00006D53068216920F4604040EAC1003060D8
:100CF00000F058F83168084AC1F30311515CC8404C
:100D00000649086006480068FFF7DEFE0020C4E7D9
:100D1000003C024008380240883D000818000020CE
:100D2000100000200F2202600C4A136803F0030336
:100D30004360136803F0F0038360136803F4E05327
:100D4000C36012684FF4E05303EAD2020261044820
:100D5000006800F00F00086070470000083802408B
:100D6000003C02400448054900680968044AC1F390
:100D70008221515CC84070471800002008380240AA
:100D8000983D00080448054900680968044AC1F311
:100D90004231515CC84070471800002008380240BA
:100DA000983D0008154810B5006810F00C01144873
:100DB00013D0431004290FD008290ED10F4C241F43
:100DC000216801F03F022168490207D52068C0F37D
:100DD0008810A0FB030106E0184610BD2168C1F38E
:100DE0008811A1FB00010023FFF7EAF92168C1F394
:100DF0000141491C4900B0FBF1F010BD0838024028
:100E00000024F4002DE9F84F040075D02078DFF8B5
:100E100028A3C007AAF1040548D00AF1040001681C
:100E2000C1F38101012908D00068C0F381000228C4
:100E30000AD1DAF80000400206D52868800335D5CB
:100E400060680028E1D031E06068B0F5803F10D0E4
:100E5000B0F5A02F286810D020F4803028602868D2
:100E600020F4802028606068A0B1FFF705FE0646E8
:100E70000CE0286840F48030F4E740F480202860DB
:100E8000F7E7FFF7F9FD801B642871D82868800315
:100E9000F7D50BE0FFF7F0FD064604E0FFF7ECFDA9
:100EA000801B6428F1D828688003F7D42078DFF805
:100EB0008C9280074FF0000B3DD59F48001D0168C4
:100EC00011F00C0F08D00068C0F3810002280AD18D
:100ED000DAF80000400206D42868800715D5E068DB
:100EE000012809D111E0E068B8B10121C9F800106A
:100EF000FFF7C2FD064605E01AE1FFF7BDFD801BC6
:100F00000228C2D828688007F7D52868216920F010
:100F1000F80040EAC10028600DE0C9F800B0FFF712
:100F2000ABFD064604E0FFF7A7FD801B02281FD893
:100F300028688007F7D42078000722D57E4F8048A4
:100F40006169703771B101210160FFF795FD0646B7
:100F500004E0FFF791FD801B022809D8386880075C
:100F6000F7D50EE0C0F800B0FFF786FD064605E0B5
:100F700082E0FFF781FD801B02287DD8386880075A
:100F8000F7D42078400765D56B484FF000083C3017
:100F90000068C0000BD468483C30016841F08051C3
:100FA000016000684FF0010800F080500090654F2C
:100FB0003868C0050FD4386840F480703860FFF797
:100FC0005BFD064604E0FFF757FD801B022853D85F
:100FD0003868C005F7D5584FA0686C3701280FD086
:100FE0000528386810D020F001003860386820F0FB
:100FF00004003860A068B0B1FFF73EFD06460EE081
:10100000386840F00100F4E740F004003860F7E78A
:10101000FFF732FD811B41F28830814263D8386886
:101020008007F5D50DE0FFF727FD064606E0FFF740
:1010300023FD811B41F28830814254D838688007F3
:10104000F5D4B8F1000F05D03B483C30016821F0E1
:1010500080510160A069B8B33749091D0968C1F31F
:101060008101022946D00228584606D0C9F86000FE
:10107000FFF702FD044639E035E04F46C9F860004D
:10108000FFF7FAFC064604E0FFF7F6FC801B022897
:1010900029D828688001F7D4D4E907010843A16A58
:1010A000294A490802EB0141626A41EA8211084378
:1010B00094F82C1040EA0161CAF80010012038664B
:1010C000FFF7DAFC044605E034E0FFF7D5FC001B2F
:1010D000022808D828688001F7D52BE0FFF7CCFC60
:1010E000001B022802D90320BDE8F88F2868800180
:1010F000F4D41FE00128F7D0DAF80000E26900F428
:101100008001914214D1226A00F03F0191420FD137
:1011100047F6C071626A0140914209D1A26A00F4A7
:101120004031914204D1E16A00F07060884201D000
:101130000120D9E70020D7E70438024000004742E9
:10114000800E4742007000400000FFFF704770476C
:1011500070B590F83C20012A32D0012580F83C502F
:10116000022280F83D2002685368946823F07006DC
:101170000B6833435360134B02689A4214D0B2F1A8
:10118000804F11D0104B9A420ED0104B9A420BD088
:101190000F4B9A4208D00F4B9A4205D00E4B9A4201
:1011A00002D00E4B9A4204D1496824F080031943BF
:1011B000916080F83D50002180F83C10084670BDD9
:1011C000022070BD00000140000400400008004003
:1011D000000C0040000401400040014000180040A5
:1011E00010B5040003D094F83D0010B107E00120D1
:1011F00010BD002084F83C00204600F00DF80220CD
:1012000084F83D00211D206801F03EF9012084F89A
:101210003D00002010BD000010B586B0044614212A
:101220006846FFF705F81F4B206800221E499842C8
:1012300023D1086840F002000860086800F002004E
:10124000059019481038016841F0040101600068F8
:10125000694600F004000590402000900220CDE98E
:101260000102CDE903201148FFF720FB00221146BF
:101270001D20FFF78BFC1D2010E00D4A90420FD17E
:10128000086840F0200008600868002200F0200094
:10129000059011463720FFF779FC3720FFF768FCEF
:1012A00006B010BD00040040403802400008024073
:1012B000001400400168CA6842F00102CA60006878
:1012C000816801F00701062903D0016841F001019E
:1012D00001600020704790F83C20012A0CD00122C8
:1012E00000F83C2F0223437050F83C3C5961427097
:1012F00000210170084670470220704770B5504DBC
:10130000002205F10C04296854F82230834202D1EE
:1013100055F8221003E0521C92B2032AF4D3834200
:101320007ED1027F03240125012A0CD10A7D052AE2
:101330000DD0042A76D10268526BA1F85C200268B5
:10134000926BA1F85E20027F022A24D030E091F84F
:101350007C204FF6FF76012A0ED0032A62D1026864
:10136000526B92B2A1F8602081F87C50B1F85C30E9
:101370009A420DD3D21A09E00268526B92B2A1F8D8
:101380005C2081F87C40B1F86030F1E74A63DAE72D
:10139000F31A1A44FAE74A7D052A0DD0042A41D1EE
:1013A0000268526BA1F864200268926BA1F8662073
:1013B000027F042A14D022E091F87D20012A08D06F
:1013C000032A2FD10268926BA1F8682081F87D5022
:1013D000EEE70268926BA1F8642081F87D40E7E7B0
:1013E0008A7D052A1ED191F87E20012A1BD0032A6E
:1013F00018D10268D26BA1F8702081F87E50027F6C
:10140000082A0FD1CA7D052A0CD191F87F20012A24
:1014100010D0032A06D10068006C21F8780F00E094
:1014200000E0CD7170BD0268D26BA1F86C2081F82C
:101430007E40E4E70068006C21F8740FCC7270BD48
:10144000700200202DE9F041044690F83C000D4662
:1014500001283CD0012684F83C60022084F83D003D
:10146000A2B3042A45D02068082A54D0D5E9002721
:10147000E968036A23F480530362D0F81CC0036A4E
:101480002CF4407C4CEA07274FF6FF7C27F470478A
:101490000CEA013139434FF4204723F4204307EA93
:1014A00002321A43C16102622068C16921F44061BD
:1014B000C1612068C169AA6841EA0221C16184F85A
:1014C0003D60002084F83C00BDE8F08101E002208E
:1014D000FAE7D5E90012EB68206801F085F9206889
:1014E000816921F00C01816120688169AA6811433A
:1014F0000FE0D5E90012EB68206801F0C7F9206819
:10150000816921F44061816120688169AA6841EAAA
:1015100002218161D3E7D5E9002C2F7B016A21F4F8
:1015200080710162C169036A21F0030141EA0C0183
:1015300021F0F00C39074FF420674CEA116123F4D5
:10154000206307EA02221A43C16102622068C1696E
:1015500021F00C01C1612068C169AA681143ADE79F
:1015600010B5040003D094F83D0010B107E001204D
:1015700010BD002084F83C00204600F00CF802204A
:1015800084F83D00211D206800F07EFF012084F8D2
:101590003D00002010BD704710B50268044631B10F
:1015A000042908D008291AD00C2908D11BE0D068DA
:1015B00040F0020002E0D06840F00400D060012258
:1015C000206800F0C5FF2068816801F00701062946
:1015D00003D0016841F001010160002010BDD06816
:1015E00040F00800EAE7D06840F01000E6E770B588
:1015F0000446006801694FF00005C943890715D406
:10160000C168C943890711D4E91E0161012020770F
:10161000206880698007204602D0FFF76FFE04E053
:1016200000F0C2F8204600F057F9257720680169DC
:10163000C943490717D4C168C943490713D46FF098
:1016400004010161022020772068806910F4407F46
:10165000204602D0FFF752FE04E000F0A5F8204635
:1016600000F03AF9257720680169C943090716D4C3
:10167000C168C943090712D46FF008010161042051
:1016800020772068C0698007204602D0FFF736FE29
:1016900004E000F089F8204600F01EF92577206864
:1016A0000169C943C90617D4C168C943C90613D41F
:1016B0006FF010010161082020772068C06910F4E4
:1016C000407F204602D0FFF719FE04E000F06CF8DE
:1016D000204600F001F9257720680169C943C90750
:1016E00008D1C168C943C90704D1891E01612046D8
:1016F00000F016F920680169C943090609D4C168D8
:10170000C943090605D46FF0800101612046FFF747
:101710001DFD20680169C943490609D4C168C94350
:10172000490605D46FF040010161204600F031F90F
:1017300020680169C94389060BD4C168C943890679
:1017400007D46FF0200101612046BDE87040FFF72B
:10175000FEBC70BD10B586B0044614216846FEF785
:1017600067FD0E492068884215D10D4800210268A6
:1017700042F008020260006800F0080005904FF493
:10178000805000900220CDE90101CDE903106946A7
:101790000448FFF78BF806B010BD000000080040B9
:1017A00030380240000C0240704770B5044690F893
:1017B0003C000D4601280DD0012684F83C60022033
:1017C00084F83D0042B1042A18D0082A2AD00C2AF5
:1017D0004DD139E0022070BD206800F0D1FE2068B4
:1017E000816941F0080181612068816921F004016B
:1017F0008161206881692A69114311E0206800F045
:10180000EFFE2068816941F400618161206881698F
:1018100021F480618161206881692A6941EA02219D
:10182000816124E0206800F011FF2068C16941F067
:101830000801C1612068C16921F00401C16120680B
:10184000C1692A69114311E0206800F033FF206864
:10185000C16941F40061C1612068C16921F48061FE
:10186000C1612068C1692A6941EA0221C16184F825
:101870003D60002084F83C0070BD10B5040003D02A
:1018800094F83D0010B107E0012010BD002084F85D
:101890003C00204600F00CF8022084F83D00211D99
:1018A000206800F0F1FD012084F83D00002010BD0B
:1018B00008B500680649884208D10648016841F029
:1018C00004010160006800F00400009008BD000001
:1018D00000080040403802407047000010B5044640
:1018E0000068012200F034FE0B482168814202D0DA
:1018F0000A48814203D1486C40F4004048642068A3
:10190000816801F00701062903D0016841F0010157
:101910000160002010BD00000000014000040140F3
:1019200010B5044600F0EEFE04492068884203D159
:10193000BDE81040FFF7A6B810BD00000010004041
:1019400070B5044690F83C00012810D0012584F8B9
:101950003C50022084F83D00204600F0F1FE0021BA
:1019600038B184F83D5084F83C10012070BD02204D
:1019700070BD2068C26822F04002C2602068C26860
:1019800022F48042C26084F83D5084F83C1000206C
:1019900070BD70477047000070B50268044610685B
:1019A000D168536910F00F0F52D003F0010501F414
:1019B00090762E435FD0C20705D0CA0503D5E26BEF
:1019C00042F00102E263420705D5DA0703D0E26B79
:1019D00042F00202E263820705D5DA0703D0E26B28
:1019E00042F00402E263020707D501F020022A4315
:1019F00003D0E26B42F00802E263E26B002A33D0CC
:101A0000800604D5880602D5204600F0A5FF206890
:101A10004069E16BC0F38010090700D428B3204669
:101A200000F08CFF2068416949061AD5416921F010
:101A300040014161606BA0B11B490165606BFEF71D
:101A400023FF002810D0606B016DBDE8704008478F
:101A5000830610D58B060ED52046BDE8704000F0F9
:101A60007BBF2046FFF796FF70BD2046FFF792FF31
:101A70000020E06370BD030606D50B0604D52046A2
:101A8000BDE8704001F048B84006F3D54806F1D5EE
:101A9000D168204621F04001D160202184F839101E
:101AA00000F094F870BD00002D29000870B5040006
:101AB00004D094F83900002510B106E0012070BD73
:101AC00084F83850204600F023F8242084F83900A8
:101AD0002068C16821F40051C160204600F088FFF1
:101AE0002068016921F4904101612068416921F079
:101AF0002A0141612068C16841F40051C160E56379
:101B0000202084F8390084F83A00002070BD0000DD
:101B100010B586B0044614216846FEF789FB1849C3
:101B20002068884229D117480021026842F48022A7
:101B30000260006800F480200590124810380268A6
:101B400042F008020260006800F0080005904FF4BF
:101B5000407000900220CDE901010320039007208E
:101B6000049069460848FEF7A1FE0022114627208E
:101B7000FFF70CF82720FEF7FBFF06B010BD0000B2
:101B80000048004040380240000C0240704790F886
:101B90003930202B18D1A9B1A2B190F83830012BDF
:101BA00012D001628284C2840021C163212280F8A4
:101BB000392080F838100068C16841F08001C160A8
:101BC0000020704701207047022070470F4A0F49DC
:101BD000121D12680968824211D1012081F820008B
:101BE0004A88486910444861CA68904201D38868AD
:101BF000486191F8210018B1022081F82100704756
:101C000008884A88801A0880704700002C0000204D
:101C100070B586B014216846FEF70AFB1E48002501
:101C2000016841F080010160016801F080010591C7
:101C3000016841F008010160016801F008010591A7
:101C4000016841F004010160016801F0040105919F
:101C5000016841F001010160016801F00101059195
:101C6000016841F00201016000680C4E00F00200C2
:101C70004FF400540590002221463046FEF7F7FE4F
:101C800001200094CDE90105694630460395FEF731
:101C90000DFE06B070BD000030380240000C02405E
:101CA00010B58CB0142106A8FEF7C2FA002419481A
:101CB0000094019402940394049415490594C0E996
:101CC00000144FF6FF71C0E9024104618461FFF71F
:101CD00087FA1048FFF744FC042006905020CDE915
:101CE000070406A90B480A94FFF72AFE00946946E8
:101CF00008480194FFF72CFA0120CDE90240049432
:101D0000002202A903480594FFF79CFB0CB010BD0C
:101D1000000400406400002010B58AB0002407943D
:101D20001C2168460894FEF783FA11480F49C0E960
:101D300000144FF6FF71C0E9024104618461FFF7AE
:101D40009CFD079407A90A480894FFF701FA702040
:101D5000CDE9000402940022694605480494FFF787
:101D600024FD0348FFF7F6FC0AB010BD0008004050
:101D7000A4000020401EB0F1807F01D301207047F5
:101D80004FF0E0214861054AF02082F8140D002050
:101D90008861072008610020704700000FE000E024
:101DA00003480168002902D00168491E016070479C
:101DB0000800002030B593B030216846FEF738FAAD
:101DC00014210CA8FEF734FA19480025016841F0E7
:101DD00080510160006800F0805011901548016842
:101DE00041F4804101600068022400F480401190B9
:101DF00001200090000401908001CDE9064008AA6E
:101E00000420A82182E813000B906846FEF7FAFF31
:101E10000CA90F2081E831004FF4A0500F90E00290
:101E2000109005210CA8FEF7E3FE13B030BD0000B2
:101E300040380240007000400548016841F47001DC
:101E4000016003494FF0006080390860704700006E
:101E500088ED00E00148FFF7CABB000064000020E5
:101E60002DE9F041FA4D2DED108B9FEDFAEB9FED32
:101E7000FBFB9FEDFCCB9FEDFDBBFE4CFE48296DAF
:101E8000006840682865A0EB0108FC480068FEF780
:101E900073FBC4E90801FEF765FFFEF76DFB41EC3B
:101EA0001A0BF6480C300068FEF766FB41EC180B85
:101EB00084ED0A8B9FEDF29B51EC1A0B53EC192B1E
:101EC000FEF768FA94ED080B41EC1A0B53EC1C2B4F
:101ED00051EC100BFEF7B7F941EC100B51EC1C0B59
:101EE00053EC102BFEF7C8FA53EC1A2BFEF752FAFC
:101EF00053EC182BFEF7C0FA41EC100B84ED0C0BE1
:101F000053EC102B9FEDE00B51EC100BFEF73CFA5D
:101F100041EC180B84ED0E8B9FEDDD0B53EC102B79
:101F2000FEF738FA95ED021B53EC112BFEF72CFA55
:101F300053EC1E2BFEF72EFA41EC1A0B53EC192B27
:101F400051EC180BFEF726FA95ED001B53EC112B04
:101F5000FEF779F953EC1A2BFEF775F941EC180BE3
:101F600053EC1F2BFEF766FB02D284ED10FB0FE053
:101F7000B0EE4B9AF0EE6B9A53EC192B51EC180B18
:101F8000FEF740FB02D284ED109B01E084ED108B44
:101F900094ED100B9FEDC01B51EC100B53EC112B6B
:101FA000FEF7F8F9C4E9120194ED0A0B00F05CFEAB
:101FB000B0EE409AF0EE609A01F0B2FE9FEDB8DB11
:101FC000B94F30B9B0EE490AF0EE690A01F086FE69
:101FD00020B1B0EE4B9AF0EE6B9A0BE09FEDB31B85
:101FE000B0EE490AF0EE690A00F0CAFEB0EE409A7F
:101FF000F0EE609A53EC1B2B51EC190BFEF702FB31
:1020000051EC190B05D281F00041FEF7E1FA404294
:1020100001E0FEF7DDFA2066B0EE4B9AF0EE6B9A27
:1020200053EC1F2B51EC180BFEF704FB08D253ECBA
:102030001F2B51EC180BFEF7A7F941EC180B0AE027
:1020400053EC1B2B51EC180BFEF7F4FA03D8B0EE4F
:102050004B8AF0EE6B8A53EC182B51EC190BFEF700
:10206000D1FA01D0012600E0002653EC1B2B51ECE5
:10207000180BFEF7C7FA04D2B0EE4D8AF0EE6D8A67
:102080001DE053EC1B2B51EC180BFEF7D3FA04D2D6
:10209000B0EE4C8AF0EE6C8A11E0B0EE4BFAF0EE46
:1020A0006BFA53EC1F2B51EC180BFEF7ABFA04D173
:1020B000B0EE4F8AF0EE6F8A01E097ED008BB0EE44
:1020C000480AF0EE680A01F02BFE9FED7AFB68B932
:1020D000B0EE4F1AF0EE6F1AB0EE480AF0EE680A52
:1020E00000F04EFEB0EE409AF0EE609A94ED0E0BCA
:1020F0009FED721B51EC100B53EC112BFEF74AF9BC
:1021000041EC180B53EC1B2BFEF77CFA11D3B0EE0D
:102110004BDAF0EE6BDA53EC1D2B51EC180BFEF79B
:1021200089FA0DD353EC1D2B51EC180BFEF76AFA0C
:1021300004D1B0EE4DCAF0EE6DCA01E097ED00CBD0
:10214000B0EE4C0AF0EE6C0A01F0EAFD20B1B0EE00
:102150004BCAF0EE6BCA0DE0B0EE4F1AF0EE6F1AFC
:10216000B0EE4C0AF0EE6C0A00F00AFEB0EE40CA87
:10217000F0EE60CA534F6EB353EC1B2B51EC190BAE
:10218000FEF740FA51EC190B05D281F00041FEF741
:102190001FFA404201E0FEF71BFA46B2B0EE4B9A3E
:1021A000F0EE6B9A53EC192B51EC1C0BFEF72AFA4C
:1021B00051EC1C0B05D281F00041FEF709FA4042B8
:1021C00001E0FEF705FA40B2864203D1B0EE498A3B
:1021D000F0EE698A4FF400513B48FEF741FC40465F
:1021E000FEF7CAF99FED391B53EC112BFEF7D2F81D
:1021F00041EC190B53EC182BFEF7CCF895ED001BB6
:1022000053EC112BFEF71FF8C5E9000153EC1A2B14
:1022100051EC190BFEF7BEF895ED021B53EC112B98
:10222000FEF711F8C5E90201B869FEF794F994EDDB
:10223000121B53EC112BFEF7E5F962D094ED128BD3
:1022400051EC180BFEF7A5F953EC1B2BB86141E0DC
:1022500010020020000000000000594000000000B3
:1022600000408F40000000000000F03F0000000030
:1022700000000000A8010020A03D00082804004044
:1022800000000000000000400000000000707C40E2
:102290000000000000003E405BBF52A0D6AFB43F3C
:1022A000000000000000F0BF580000200000000007
:1022B0000000F04100000000000070409A999999D8
:1022C0009999E93F88020020000C02409A99999957
:1022D0009999C93F51EC180BFEF7ACF911D80B488E
:1022E0000568E86AFEF748F994ED121B53EC112BD0
:1022F000FEF750F853EC1E2BFEF7BEF8FEF768F918
:102300006863BDEC108BBDE8F0810000A4000020E4
:102310000148FFF76CB90000640100200148FFF795
:1023200066B90000E400002070B5534896B090F9FB
:102330005D100122002561B101290DD090F85F10D8
:1023400080F85E1090F85E104C4C41B190ED120B8D
:1023500007E080F85E20F5E780F85E50F2E790ED48
:10236000100B4FF0FF3384ED000B80F85E3090F9D6
:102370005A1059B101290CD090F85C1080F85B100C
:1023800090F85B1041B190ED0E0B07E080F85B20F8
:10239000F6E780F85B50F3E790ED0C0B84ED020B51
:1023A00080F85B3090F9571059B101290CD090F8A2
:1023B000591080F8581090F8581041B190ED0A0B60
:1023C00007E080F85820F6E780F85850F3E790EDE2
:1023D000080B84ED040B80F8583090F9541059B173
:1023E00001290CD090F8561080F8551090F855102F
:1023F00041B190ED060B07E080F85520F6E780F834
:102400005550F3E790ED040B84ED060B80F8553042
:10241000236EA36594ED000B194A8DED060B94ED28
:10242000060B32218DED040B94ED040B08A88DED05
:10243000020B94ED020B8DED000B00F0EBFB08A8F6
:1024400001F0ACF9E0652E220146A4F866200D48A3
:1024500000F037FA0B4E308820B1A4F864503046B3
:1024600000F092FB96F82000002802D07088A4F8B3
:10247000640016B070BD000010020020A80100200A
:10248000A43D000844060020F0B50268254D264E04
:10249000264FDFF89CC0274B4FF0804EA84209D052
:1024A000704507D0B04205D0B84203D0604501D096
:1024B000984203D122F070044A682243A8421BD0FC
:1024C000704519D0B04217D0B84215D0604513D02E
:1024D000984211D0184CA0420ED0184CA0420BD0FC
:1024E000174CA04208D0174CA04205D0164CA04271
:1024F00002D0164CA04203D122F44074CA68224391
:102500004C6922F08002224302608A68C2620A6833
:102510008262A84201D0984201D109690163012178
:102520004161F0BD0000014000040040000800408F
:10253000000C004000040140004001400044014004
:102540000048014000180040001C004000200040EE
:1025500010B501F01F010123046A8B409C43046203
:10256000036A8A401343036210BD10B5846842EACF
:10257000032224F47F440A432243826010BD0000FA
:10258000F0B5026A22F001020262026A43688469BD
:10259000114E24F073050C68104F2C4322F00205F5
:1025A0008A682A43B04201D0B84205D122F008051A
:1025B000CA682A4322F00402B04201D0B84205D1D1
:1025C0004D6923F440731D438B692B434360846141
:1025D000496841630262F0BD00000140000401400F
:1025E000F0B5026A22F010020262026A436884694E
:1025F0000D6824F4E64444EA05248D6822F02002A4
:1026000042EA05120F4D104EA84201D0B04206D149
:10261000CF6822F0800242EA071222F04002A8426C
:1026200001D0B04207D14D6923F4406343EA8503EA
:102630008D6943EA8503436084614968816302626E
:10264000F0BD00000000014000040140F0B5026A46
:1026500022F480720262026A4368C46922F4007242
:1026600024F073050C68124E2C438D6842EA052253
:102670000E4DA84201D0B04206D1CF6822F40062CC
:1026800042EA072222F48062A84201D0B04207D178
:102690004D6923F4405343EA05138D6943EA05135A
:1026A0004360C4614968C1630262F0BD000001403B
:1026B0000004014030B5026A22F480520262036ACB
:1026C0004268C4690D6824F4E64444EA05248D6830
:1026D00023F4005343EA0533084DA84202D0084DC5
:1026E000A84204D14D6922F4804242EA8512426038
:1026F000C46149680164036230BD0000000001400C
:102700000004014030B40D4D002105F10C032C688C
:1027100053F82120824202D155F8214003E0491CA0
:1027200089B20329F4D3824205D1D4F8800000286D
:1027300001D030BC004730BC704700007002002060
:1027400010B50268936823F070044B68234323F0AC
:1027500007040B68234393604A6812F00F0F30D1CF
:102760001211082A2DD2DFE802F02C2C2C2C0B2180
:1027700027040B69D1E902210068FFF7F6FE20E08B
:102780000A68052A10D00268146A136A23F001034C
:10279000136202689369096923F0F00343EA0111A7
:1027A0009161006804620CE0012010BD0A6989682B
:1027B000006800F008F804E00A698968006800F021
:1027C00053F8002010BD10B5046A036A23F001031A
:1027D0000362836923F0F00343EA021324F00A0240
:1027E0000A438361026210BD70B5046A24F00104DB
:1027F00004628469056A154EB04214D0B0F1804F6E
:1028000011D0134EB0420ED0124EB0420BD0124E29
:10281000B04208D0114EB04205D0114EB04202D0A5
:10282000104EB04203D124F00304144301E044F0FD
:1028300001041A0724F0F00444EA126225F00A03A6
:1028400001F00A0119438261016270BD000001407C
:102850000004004000080040000C0040000401405B
:10286000004001400018004010B5036A23F0100337
:1028700003628469036A24F4704444EA023223F058
:10288000A00343EA01118261016210BD30B5046A00
:1028900024F0100404628569046A25F4407545EA51
:1028A000022222F470454FF6FF7202EA033224F04E
:1028B000A0032A43A02404EA0111194382610162A2
:1028C00030BDF0B500231C4617E0D0E90456B542F0
:1028D00001D106889EB911F8017B6E1C06612F702C
:1028E000D0E904565B1C9BB2B54208D0C668B5421D
:1028F00001D185680561641CA4B29442E5D301212D
:1029000080F821100188194489B2018090F8214093
:10291000022C02D14488091B0180002180F821107B
:10292000934202D28188491C8180F0BD10B5806B32
:102930000021C185C184FFF72DF810BD0168CA6868
:1029400022F49072CA6001684A6922F001024A6169
:10295000202180F83A10704710B590F83A102229DB
:1029600001D0022010BD8168B1F5805F11D00169EE
:10297000002901681FD0496801F07F03816A4A1C61
:1029800082620B70C18D491E0904090CC18518D0E3
:102990002BE00269816A002A0268526805D0D2B22F
:1029A0000A80816A491C8162ECE7C2F308020A804E
:1029B000816A891CF7E74A68816A4B1C83620A7046
:1029C000E0E70168CA6822F02002CA600168CA68AC
:1029D00022F48072CA6001684A6922F001024A61E9
:1029E000202180F83A10FFF7D1F8002010BD000038
:1029F0002DE9F041044600680169E26821F4405184
:102A000011430161A1682069E269014360691043D3
:102A100001432068C26849F20C639A430A43C260CA
:102A200020684169A26921F4407111434161E06964
:102A3000192764253226B0F5004F354A35492068FC
:102A40004FF0000806D0884201D0904236D1FEF700
:102A500099F935E0884201D0904202D1FEF792F90F
:102A600001E0FEF77FF961684A18A0FB070148EB17
:102A70000803FDF7A5FB0146B0FBF5F00201B1FB31
:102A8000F5F06FF01803584301EB800006EBC0002F
:102A9000B0FBF5F000F0F80002EB4002B1FBF5F0FE
:102AA000584301EB800006EBC000B0FBF5F000F0EE
:102AB0000700216810448860BDE8F081FEF752F9F4
:102AC00001466068830F8200A1FB0701FDF778FBD8
:102AD0000146B0FBF5F06FF01802504301EB8000A7
:102AE00006EB0010B0FBF5F000F0F002B1FBF5F0E2
:102AF00002EB0012B1FBF5F06FF01803584301EB45
:102B0000800006EB0010B0FBF5F000F00F00D0E7FE
:102B1000001401400010014090F83910212901D023
:102B2000022070478168B1F5805F016A0BD04A1CB2
:102B30000262026809785160C18C491E0904090CBF
:102B4000C1840ED017E009880268C1F30801516002
:102B500001690029016A02D0491C0162ECE7891C65
:102B6000FBE70168CA6822F08002CA600068C16899
:102B700041F04001C1600020704700000148FEF7AD
:102B80000BBF00002401002090F82010002912D073
:102B90000288002A0FD0002180F820108389416923
:102BA0005B1A9BB29A4201D8428001E043801A46E8
:102BB0000148FEF7ECBF70472401002010480021B7
:102BC0004FF40072018041808180C280A0F50072C4
:102BD0000346C0E90223026142610A4A82610A4A4D
:102BE000C261022280F8202080F82110074A111FBC
:102BF000098842F82100121D054842F8210070475B
:102C000044060020C3280008892B00082C0000205F
:102C1000240100200FB41CB50246002007AC002997
:102C20000BD0491ECDE90021054B6A462146069886
:102C300000F012FA009A002111701CBC5DF814FB20
:102C4000873700080907090E002804DB00F1E0209F
:102C500080F80014704700F00F0000F1E02080F8C9
:102C6000141D7047000000002DE9F0412DED020B0E
:102C70009FED3D0B2DED028B9FED3D8BDDE9025469
:102C8000C4F30A50A0F2FF36142E37DA002E18DAF9
:102C900053EC102B9DED020B51EC100BFDF7D3FA0A
:102CA00053EC182BFDF7C6FC57D2002CA4BF002410
:102CB000254652DA24F00040284318BF2E4C4CD051
:102CC0001AE02E4820FA06F704EA070028431FD02E
:102CD00053EC102B9DED020B51EC100BFDF7B3FAEA
:102CE00053EC182BFDF7A6FC37D2002C03DA4FF477
:102CF0008010F0400444BC4300252EE0332E07DC56
:102D0000A6F114004FF0FF3121FA00F73D4206D141
:102D10009DED020BBDEC028B02B0BDE8F08153ECDF
:102D2000102B9DED020B51EC100BFDF730FB53EC1B
:102D3000182BFDF77FFC10D2002C0DDA142E08BFE3
:102D4000641C09D0C6F13400012101FA00F02844C6
:102D5000A84238BF641C0546BD43CDE902549DED31
:102D6000020BD7E7000000009C7500883CE4377E2A
:102D700000000000000000000000F0BFFFFF0F0097
:102D800010B52DED040B86B09DED060B10EE100A6C
:102D900010EE901A8DED000B002818BF012008439B
:102DA00020F00040C0F17F6000F1E040C00F21D171
:102DB0009DED080B10EE101A10EE900A8DED000B31
:102DC000002918BF0121084320F00040C0F17F60B6
:102DD00000F1E040C00F0DD129490798B1EB400F39
:102DE00004BF0698002842D00998400004BF089804
:102DF00000283CD09DED080B53EC102B9DED060BED
:102E000051EC100BFDF7D2FCCDE902019DED020B58
:102E100040F2FF7110EE900A8DED000B31EA105078
:102E200021D00798039900F0004001F0004188424A
:102E300019D09DED080B8DED040B9DED020B8DED72
:102E4000000B10EE900A059961F31E0005909DEDB0
:102E5000041B9DED020B51EC110B53EC102BFDF7F5
:102E600096FACDE902019DED020B0AB010BD0120DA
:102E700000F02AF80AB0BDE8104000F005B80000E4
:102E80000000E0FF000000009FED050B10B553ECC3
:102E9000102B51EC100BFDF7EFFA41EC100B10BDAD
:102EA000000000000000000002E008C8121F08C176
:102EB000002AFAD170477047002001E001C1121FBB
:102EC000002AFBD1704700000149086070470000EC
:102ED000600000202DE9FF5F82B00021DDE90430B1
:102EE000020DDDF840B0034318D044F61050A2F2B2
:102EF000FF3242431514119801281FD0A5EB0B0097
:102F0000401C5FEA000A4FF000064E4FDFF8389190
:102F1000B046504615D5CAF1000413E011980124BB
:102F20004AA3012801D16FEA0B010298119AC0E966
:102F30000031C0E9024206B0BDE8F09FCBF10000CD
:102F4000DFE704460021404A491842EB0450CDE92E
:102F5000001012E0E00707D032463B4640464946A3
:102F6000FDF718FA8046894632463B461046194618
:102F7000FDF710FA06460F466410002CEAD1DDE991
:102F80000401DDE90023BAF1000F06DAFDF702FAC9
:102F900042464B46FDF7FEF905E0FDF76DFA424665
:102FA0004B46FDF769FA04460E460022284BFDF712
:102FB00041FB03D84FF0FF30014607E00022254BCC
:102FC00020463146FDF73FF9FDF733FC102409E0B8
:102FD000002C0ADB0A220023FDF7F2F8039B3032B3
:102FE0001A55641E50EA0102F2D1641C039AC4F11E
:102FF00011031444119A012A03D0012208430DD170
:103000000AE0084304D000204FF0110B119072E742
:10301000A3EB0B056D1E0DE05B4504DD4FF00002D8
:1030200005F1010504E003DA4FF00002A5F1010506
:10303000002AECD002981199C0E90231C0E900459C
:1030400079E70000000014400000F03F300000006D
:103050000000F0430000E03F2DE9FF4F95B09B4694
:103060008946064600250FE2252877D10024274609
:10307000F84A0121059400E0044316F8013F203B83
:1030800001FA03F01042F7D130782A2811D06FF0FE
:103090002F033078A0F13002092A16D8059A44F09F
:1030A000020402EB820203EB42021044761C0590FC
:1030B000EFE759F8042B0592002A03DA504244F452
:1030C0000054059044F00204761C30782E2816D166
:1030D00016F8010F44F004042A280DD06FF02F02D7
:1030E0003078A0F13003092B09D807EB870302EBF6
:1030F0004303C718761CF3E759F8047B761C307835
:103100006C280FD006DC4C2817D068280DD06A2810
:1031100014D104E0742810D07A280FD10DE044F4C3
:1031200000140AE044F4801401E044F4401472787E
:10313000824202D104F58014761C761C3078662811
:103140000BD013DC582877D009DC002875D045282F
:10315000F6D04628F4D047281AD19DE118E063281C
:1031600035D0642879D0652812D195E1702873D0C4
:1031700008DC6728F1D069286FD06E280DD06F2841
:1031800006D1B5E073282CD0752875D0782874D076
:103190005A46179990476D1C75E1C4F302500228F6
:1031A00009D003280DD0D9F8001004280DD00D60E7
:1031B00009F1040967E1D9F80010EA17C1E90052E2
:1031C000F6E7D9F800100D80F2E70D70F0E719F876
:1031D000041B8DF8001000208DF80100EA46012044
:1031E00003E059F804AB4FF0FF3061074FF00001E6
:1031F00002D40DE008F101018846B9420FDA80459A
:10320000F8DB1AF808100029F4D108E008F10101F0
:1032100088468142FADB1AF808100029F6D1059891
:103220005B46A0EB080721463846179A00F094FA4F
:10323000284400EB080507E04DE029E10DE01AF80D
:10324000010B5A4617999047B8F10108F7D25B462F
:1032500021463846179A13E142E00A220092C4F34D
:1032600002524FF0000A022A08D059F804CB032A70
:103270004FEAEC710AD00DE029E02AE009F10701DC
:1032800021F00702F2E802C1914609E00FFA8CFC36
:103290004FEAEC71042A03D14FFA8CFC4FEAEC712F
:1032A000002907DA0A460021DCF1000C61EB02017B
:1032B0002D2202E0220504D52B228DF804200122C4
:1032C00003E0E20701D02022F7E7904659E00A2107
:1032D00002E010220DE010214FF0000A00910BE0F7
:1032E00010224FF0000A44F004040827009203E083
:1032F00008224FF0000A0092C4F30252022A05D0BD
:1033000059F804CB0021032A08D009E009F107018C
:1033100021F00702F2E802C1914605E01FFA8CFC99
:10332000042A01D10CF0FF0C4FF00008220728D529
:10333000702806D0009B83F0100353EA0A0305D0DF
:103340000EE040228DF80420012208E05CEA010230
:1033500006D030228DF804208DF805000222904618
:10336000009B83F0080353EA0A030AD15CEA0102D6
:1033700001D1620705D530228DF804204FF00108F5
:103380007F1E582804D034A003900EA802900DE0B0
:1033900036A0F9E753466046009AFCF711FF8446D1
:1033A0000398825C0298401E029002705CEA010061
:1033B000F0D1029806A9081A00F1200A600702D588
:1033C00024F4803400E00127574502DDA7EB0A0012
:1033D00000E0002000EB0A01009005984144401AEB
:1033E0000590E00306D45B462146179A059800F045
:1033F000B3F90544002706E001A85A46C05D1799B5
:1034000090476D1C7F1C4745F6DBE0030CD55B46FF
:103410002146179A059800F09FF9054404E03020F2
:103420005A46179990476D1C0099481E0090002934
:10343000F5DC08E0029802995A460078491C02918E
:10344000179990476D1CBAF10001AAF1010AF1DC4D
:1034500065E1000009280100303132333435363758
:1034600038396162636465660000000030313233D0
:103470003435363738394142434445460000000070
:1034800000F058F90544761C307800287FF4ECAD44
:1034900019B02846BDE8F08F620700D4062709F16D
:1034A000070222F0070CFCE80223E14603F0004883
:1034B0005FEA080C02D00FF2702C0DE05FEA045CAA
:1034C00002D50FF2682C07E05FEAC47C02D00FF24D
:1034D000602C01E0AFF2700C4FF0FF3823F0004396
:1034E000CDF850C065280CD006DC452809D0462808
:1034F0001DD047283DD13DE0662818D067287ED1F1
:1035000038E00021112F01DB112000E0781CCDE90B
:10351000000106A90EA8FFF7DDFCDDE90F010E9AF8
:1035200003910021009207F1010A04914DE04FF050
:1035300000400097CDE9011006A90EA8FFF7CAFCCC
:10354000DDE90F0203920E9B11990022DDF80CA019
:103550000093049211B9791C00EB010AB7EB0A0041
:1035600004D4C0F1FF3007F1010A0490AAEB070070
:10357000019044E0012F00DA01270021112F01DD25
:10358000112000E03846CDE9000106A90EA8FFF79A
:10359000A1FCDDE90F010E9A039100210491009234
:1035A000BA4621070CD40399514500DA8A46BAF18C
:1035B000010F05DD009AAAF10101515C302908D004
:1035C000B84202DA10F1040F06DA0121CDE9011048
:1035D00015E0AAF10101E9E7002805DC049901449E
:1035E0000491AAEB000102E0411C514500DD8A462E
:1035F0000499401A401C01904FF0004002902007AF
:1036000004D40198504501DBCDF8048000208DF8EA
:103610004F0002980DF14F07B0F1004F25D02B203D
:103620000E9002984FF0020800280CDA40420290F7
:103630002D200E9007E00A210298FDF713F8303193
:10364000029007F8011DB8F10001A8F10108F2DCB1
:1036500002980028EFD1791E0E980870307800F09B
:10366000200040F0450007F8020D12A8C01B00F131
:1036700007081498007800B1012000EB0A010198B6
:1036800001EBE07105984144401A401E0590E003AB
:1036900006D45B462146179A059800F05DF805446C
:1036A0001498007818B15A46179990476D1CE0039A
:1036B00024D55B462146179A059800F04DF805443D
:1036C0001CE00498002807DBDDE90301884203DDE4
:1036D0000098405C179901E0179930205A469047AE
:1036E000049805F10105401C04900198401E0190CA
:1036F00004D12E205A46179990476D1CBAF100014B
:10370000AAF1010ADDDC05E017F8010B5A4617990A
:1037100090476D1CB8F10001A8F10108F4DC5B468C
:103720002146179A0598ABE62D0000002B000000FB
:10373000200000002DE9F041044600251E461746F2
:10374000880404D405E039462020B0476D1C641E6F
:10375000F9D52846BDE8F0812DE9F0410446002561
:103760001E469046C80301D5302700E02027880474
:1037700004D505E041463846B0476D1C641EF9D5B6
:103780002846BDE8F0814A68002A06D00A68531C22
:103790000B6010704868401E48607047704700001A
:1037A0002DED028B82B0FDF775F9FEF703FBFEF7F6
:1037B0002FFAFEF7B1FAFEF773FA3E483C490025AE
:1037C00001604FF4E131C0E901150C21C560C0E989
:1037D00004518561C561FEF769F9364800954038A6
:1037E00035490195C0E900154FF6FF71C0E9025156
:1037F0008561FDF7F5FC2F48009569464038019535
:10380000FDF7A6FC2D4E3068FCF7B6FE9FED2C8B25
:1038100053EC182BFCF730FEFCF7DAFEFEF7AAFAA1
:10382000294C012740B367604FF080783068FCF77F
:10383000A3FE894606466068401C606049EC106B38
:1038400053EC182B51EC100BFCF716FEFCF7C0FEE6
:103850006168B0FBF1F04045EDD249EC106B53ECE0
:10386000182B51EC100BFCF707FEFCF7B1FE61685A
:10387000B0FBF1F0FEF77EFA6068A060124E002007
:103880003554401C0128FBDB00F026F8DFF83C80B3
:10389000A0680028FCD16068A060307818B1D8F822
:1038A00000000BA10160377000F036F93570EFE7CA
:1038B00000480040240100200014004018000020AF
:1038C0000000000000408F4000000020A03D0008E4
:1038D0004F76657272756E002DE9F05F082000F07A
:1038E00035FA7E48002468210068046044607C4802
:1038F000FCF79EFC7A4860216830FCF799FC7B4D10
:10390000794E7C4F29887748794A46F8210047F854
:103910002120491C2980DFF8E08142F2CF01E0E854
:103920000218632142F2107A4FF0640BA0E8020CF7
:103930003221C0E90114C4604FF00109046180F82C
:103940000090092242708270C270C46604674467A6
:10395000674A8467C467126842F2CF009062644A83
:1039600063201268D062624AD060104600684163EA
:1039700001211046FDF7AFFC298860485F4A46F8F0
:1039800021005F4847F82100491C298040F2473157
:103990001346116040F23F62C3F804809A60594AAE
:1039A000DA603E221A611A469461D461146254624C
:1039B000A2F85C40A2F85E40A2F86040A2F8624023
:1039C00083F87C90D4621463546305221A7509222B
:1039D0005A759A75DA751A46C2F88440C2F888405A
:1039E000C2F88C40C2F89040474AC3F88020026871
:1039F000916202684FF6FF71D162C16001680A6886
:103A000022F440720A6001680A680A6001210461B8
:103A1000FDF761FC29883D483D4A46F8210047F8FA
:103A20002120491C298042F2CF01E0E80518A0F1CD
:103A30000C0344608460C4606321046183E8020C69
:103A40000921017041708170C17004674467846707
:103A50003049C467C166116842F2CF0088621168BC
:103A60006320C862D06001211046FDF734FC204875
:103A700090F83D100229FBD000211D48FDF72EFFD4
:103A8000FFF79CF81E4890F83D100229FBD000215A
:103A90001B48FDF781FD1A48FDF70CFC1C48FDF79B
:103AA00009FC1B48FDF706FC0D484FF0FF3168305C
:103AB00080F8541080F8551080F8571080F858108E
:103AC00080F85A1080F85B1080F85D1080F85E1066
:103AD0000249096849680165BDE8F09FA03D0008FA
:103AE000A80100208802002070020020240000208D
:103AF000A40000207C02002000BD01051C03002062
:103B000064000020A0860100611E0008B0030020B0
:103B1000E40000202923000870B5554890F955208D
:103B2000012400218AB1012A12D090F8562092B1C6
:103B3000002280F8542090F854204D4B683B93EDC0
:103B40000C0B52B180ED060B09E080F85440F2E70F
:103B500080F85410EFE70122EBE780ED040B90F8BA
:103B6000542080F856204FF0FF3580F8545090F9DB
:103B700058208AB1012A12D090F8592092B100221F
:103B800080F8572090F85720394E683E96ED100B7C
:103B900052B180ED0A0B09E080F85740F2E780F857
:103BA0005710EFE70122EBE780ED080B90F8572064
:103BB00080F8592080F8575090F95B208AB1012A8B
:103BC00012D090F85C2092B1002280F85A2090F830
:103BD0005A20274E683E96ED0E0B52B180ED0E0B2B
:103BE00009E080F85A40F2E780F85A10EFE7012226
:103BF000EBE780ED0C0B90F85A2080F85C2080F801
:103C00005A5090F95E208AB1012A12D090F85F20B4
:103C100092B1002280F85D2090F85D20144C683C41
:103C200094ED120B52B180ED120B09E080F85D406B
:103C3000F2E780F85D10EFE70122EBE780ED100B73
:103C400010F85D2F827005700A4AD06A20B1D168E1
:103C5000B1FBF0F0106301E0084611631865506B8A
:103C600058650548016800684968491C416070BD95
:103C7000100200201C030020A03D00081CB50348D2
:103C80000190002000909DED000B1CBD0000F07F16
:103C90004FF0FF4000EE100A704700001CB50348CB
:103CA0000190002000909DED000B1CBD0000F0FF76
:103CB000014800EE100A7047000080FF1CB5034861
:103CC0000190002000909DED000B1CBD0000F8FF4E
:103CD000014800EE100A70470000C0FF10B50F4CFD
:103CE0002DED028BB0EE408AF0EE608A94ED040B6D
:103CF00051EC180B53EC102BFCF784FC08D094ED1E
:103D0000060B51EC180B53EC102BFCF77BFC03D18A
:103D10000120BDEC028B10BD0020FAE73800002026
:103D20001CB510EE900A8DED000BC0F30A50A0F503
:103D3000E061FF3908D110EE900A000302D110EEC5
:103D4000100A08B101201CBD00201CBD10B5FFF7F2
:103D5000B5FF0C4C84ED080BFFF7BAFF84ED020AA7
:103D6000FFF78CFF84ED040BFFF792FF84ED000A50
:103D7000FFF794FF84ED060BFFF79AFF84ED010A2D
:103D800010BD00003800002000000000000000000E
:103D900001020304060708090000000001020304F1
:103DA0001C00002025752C25352E32662C25352E3D
:103DB00032662C25352E32662C25352E32660D0ABC
:103DC00000000000E43D0008000000206400000046
:103DD000A82E0008483E000864000020040A0000E5
:103DE000B82E0008000000000100000001000000E3
:103DF0000100000010000000000000000024F4009A
:103E000000000000000000000000000000000000B2
:103E100000000000000000000000000000000000A2
:103E20000000000000000000000000000000000092
:103E30000000000000000000000000000000000082
:083E400000000000000000007A
:040000050800018965
:00000001FF
