:020000040800F2
:10000000900A00209D010008C31D00084B1C000839
:10001000C11D000889080008C92B00080000000065
:10002000000000000000000000000000C71D0008E4
:100030008B08000800000000C51D0008F51D000821
:10004000B7010008B7010008B7010008B7010008B0
:10005000B7010008B701000859090008B7010008F6
:10006000B7010008B7010008B7010008B701000890
:10007000B7010008B7010008B7010008B701000880
:10008000B7010008B7010008B7010008B701000870
:10009000B7010008B7010008B7010008B701000860
:1000A000B7010008B7010008B7010008B701000850
:1000B000B7010008AD1E0008B7010008B70100082D
:1000C000B7010008B7010008B7010008B701000830
:1000D000B7010008B7010008B7010008B701000820
:1000E000B7010008B7010008B7010008B701000810
:1000F000B7010008B7010008B7010008B701000800
:10010000B7010008B7010008B7010008B7010008EF
:10011000B7010008B7010008B70100086D23000807
:10012000B7010008B7010008B7010008B7010008CF
:10013000B7010008B7010008B7010008B7010008BF
:10014000B7010008B7010008B7010008B7010008AF
:10015000B7010008B7010008B7010008B70100089F
:10016000B7010008B7010008B7010008B70100088F
:10017000B7010008B7010008B7010008000000003F
:10018000B7010008B7010008DFF80CD000F06AFBE7
:100190000048004759370008900A00200648804769
:1001A00006480047FEE7FEE7FEE7FEE7FEE7FEE75C
:1001B000FEE7FEE7FEE7FEE7911E00088901000862
:1001C0002DE9F05F0546002092469B46884606468C
:1001D000814640241BE0284641464746224600F01F
:1001E00066FA53465A46C01A914110D31146184632
:1001F000224600F04DFA2D1A67EB01084F462246C1
:100200000120002100F044FA17EB00094E41201EA6
:10021000A4F10104DFDC484631462A464346BDE8E6
:10022000F09FD2B201E000F8012B491EFBD27047CB
:100230000022F6E710B513460A4604461946FFF7B2
:10024000F0FF204610BD2DE9FE4F804681EA0300F5
:10025000C00F0C46009021F0004123F00045B8EBA0
:100260000200A94105D24046214690461C460B4655
:10027000024623F00040104347D0270DC7F30A0081
:10028000C3F30A510290401A019040286BDAC3F37D
:10029000130040F4801B0098924620B10023D2EB5B
:1002A000030A63EB0B0B01985946C0F1400250461C
:1002B00000F0EEF906460D4650465946019A00F008
:1002C00006FA10EB08006141002487EA115284EA23
:1002D000E7731A4340D0009A62B3019A012A4FEAA9
:1002E000075215DC001B61EB02014FF0004202EAED
:1002F0000752CDE90042001C41F5801132462B46E1
:1003000000F006FA03B0BDE8F08F40462146F9E759
:10031000001B61EB0201001C41F5801300185B41DA
:100320002018A2F5001747EB030140EAD570B61973
:100330006D4111E06D084FEA360645EAC0754FEA97
:100340000752001B61EB0201001C41F580114908B6
:100350004FEA30000019514132462B4603B0BDE848
:10036000F04F00F0C6B90098012240000023D0EB06
:10037000020263EBE073009821464FEAE074B8EBA9
:10038000000061EB0401E9E783F000435BE781F0E3
:10039000004158E72DE9FE4F81EA030404F00044D0
:1003A00021F0004100944FF0000B23F0004350EA8D
:1003B00001045ED052EA03045BD0C3F30A54C1F3D4
:1003C0000A552C44A4F2F3340194A0FB0254C1F367
:1003D000130141F48011C3F3130343F4801301FBB1
:1003E000024400FB034E840A970A44EA815447EA18
:1003F0008357A4FB076802958D0A05FB07854FEA22
:10040000932C04FB0C542705029D4FEA065847EA3B
:100410001637B5EB08056EEB070C870E920E47EA10
:10042000811742EA8312A7FB0201B6EB0B0164EBD2
:1004300000042B0D43EA0C335E1844EB1C50DA46E3
:100440005146E7FB0201C5F313044FEA0B3343EABD
:1004500014534FEA0432019C43EA0603A4F10C044E
:100460000294009CCDE900B400F052F903B0BDE85D
:10047000F08F00200146F9E72DE9F04D81EA0304F1
:1004800004F0004B21F0004514464FF0000A23F021
:10049000004150EA050220D054EA01021DD0C5F304
:1004A0000A570246C5F31303C1F31300C1F30A56FA
:1004B00040F4801543F48013A7EB0608101BD646C2
:1004C00008F2FD3873EB050002D308F1010801E0E2
:1004D00092185B41B8F1000F03DA00200146BDE835
:1004E000F08D00204FF48011064684460EE0171B65
:1004F00073EB050705D3121B63EB050306434CEAB8
:10050000010C49084FEA300092185B4150EA01079C
:10051000EDD152EA030012D082EA040083EA050119
:10052000084305D0101BAB4106D20122002306E090
:1005300000224FF0004302E06FF0010253101AEB6B
:1005400006004CEB085110EB0A0041EB0B01BDE833
:10055000F04D00F0CEB80EB5C10F80EAE07008444F
:10056000CA07002140F233438DE80E000A460B46CD
:1005700000F0CEF803B000BD0EB540F23341029159
:100580000021CDE900110A460B4600F0C1F803B086
:1005900000BD70B5C1F30A5201F000450024C1F35B
:1005A000130140F2FF3341F480119A4201DA002036
:1005B00070BD40F233439A42A2F2334203DC52420E
:1005C00000F075F800E090402C43F1D0404270BD3F
:1005D000C1F30A5210B5C1F3130140F2FF3341F4E5
:1005E00080119A4201DA002010BD40F233439A4252
:1005F000A2F2334203DC524200F059F810BD9040A1
:1006000010BD000030B5041E71F1000404DB4FF092
:100610000044404264EB0101141E73F1000405DB49
:100620001C464FF00043524263EB04038B4208BF69
:10063000824230BD30B5041E71F1000404DB4FF07E
:100640000044404264EB0101141E73F1000405DB19
:100650001C464FF00043524263EB0403994208BF2B
:10066000904230BD30B50B460146002020220124C7
:1006700009E021FA02F59D4205D303FA02F5491B70
:1006800004FA02F52844151EA2F10102F1DC30BD86
:10069000202A04DB203A00FA02F100207047914042
:1006A000C2F1200320FA03F3194390407047202A37
:1006B00004DB203A21FA02F00021704721FA02F30C
:1006C000D040C2F120029140084319467047202AC9
:1006D00006DBCB17203A41FA02F043EAE07306E06A
:1006E00041FA02F3D040C2F120029140084319467A
:1006F000704710B5141E73F1000408DA401C41F174
:10070000000192185B411A4301D120F0010010BD95
:100710002DE9F04D92469B4611B1B1FA81F202E00B
:10072000B0FA80F220329046FFF7B2FF04460F463F
:1007300040EA0A0041EA0B0153465A46084313D0E7
:10074000114653EA010019D0C8F140025046FFF7A4
:10075000AEFF05460E46504659464246FFF798FF03
:10076000084305D0012004E020463946BDE8F08D5D
:100770000020054346EAE0762C4337430A98630598
:10078000E40AA0EB08000022FD0A44EA47540A30BC
:1007900002D500200146E9E7010510196941DDE9AC
:1007A000084500196941BDE8F04DA2E72DE9FE4F6B
:1007B000C3F30A5701F000450024C1F30A56C3F3FE
:1007C0001303C1F3130143F4801312EB020AA6468C
:1007D00041F48011009543EB030CA7F1010B16E0E7
:1007E000B0EB0A0061EB0C01071E71F1000707DA9C
:1007F0004FF00008D0EB080085F0004568EB0101E0
:10080000171A73EB0107EBD3761E001849415E45BA
:10081000F6DA50EA010209D0CDE900E500221346DC
:100820000296FFF775FF03B0BDE8F08F20460099F0
:10083000F9E7C1F30A52C1F3130140F2FF3341F467
:1008400080119A4202DA00200146704740F2334399
:100850009A42A2F2334202DC5242FFF728BFFFF76E
:1008600017BF0000064C074D06E0E06840F00103AA
:1008700094E8070098471034AC42F6D3FFF788FCA1
:10088000E03D0008003E0008FEE7704770B5274CC9
:100890009FED270B284D94F87300012640B194F882
:1008A0007400012809D002280DD0032802D110E0DD
:1008B00084F8736084F8746010E0022084F8740097
:1008C0009FED1E0B0AE0032084F874009FED1D0BC2
:1008D00004E004209FED1D0B84F8740085ED160BD9
:1008E0004FF480411B4800F077F994F9650030B16E
:1008F000012802D094F8660020B1002003E084F8BB
:10090000646002E0012084F8640094F8640095EDCE
:10091000160B10B184ED060B01E084ED040B14F806
:10092000640FA070FF20207070BD0000E001002067
:100930000000000000C062406801002000000000CC
:1009400000C072400000000000207C400000000059
:1009500000C08240000C0240012000F055B80000A9
:100960000021B0F5807F37D010DC10282CD006DCB9
:10097000022823D0042823D008283CD122E02028B4
:1009800024D0402824D0802835D123E0B0F5805FE2
:100990002AD009DCB0F5007F20D0B0F5806F1FD0E1
:1009A000B0F5006F27D11DE0B0F5005F1ED0B0F5A7
:1009B000804F1DD0B0F5004F1DD11BE001211AE082
:1009C000022118E0032116E0042114E0052112E0C1
:1009D000062110E007210EE008210CE009210AE0C1
:1009E0000A2108E00B2106E00C2104E00D2102E0C1
:1009F0000E2100E00F21034850F82100002800D00C
:100A00000047704758020020044910B50A680242A6
:100A100002D00860FFF7A4FF10BD0000143C0140A5
:100A20002DE9F84F00224FF0010803254FF00F0E7B
:100A30000B6808FA02F42340A3426ED14E68012EDF
:100A400005D0022E03D0112E01D0122E12D18668AD
:100A50004FEA420C05FA0CF7BE43CF6807FA0CF7D1
:100A6000374387604668A6430C79C4F3001494406A
:100A700034434460C668570005FA07FC8C6826EAD0
:100A80000C06BC403443C4604C68022C01D0122CCC
:100A900013D1D40800EB8404A346D4F82090540763
:100AA0004FEAD46A0EFA0AF629EA06090E6906FA2E
:100AB0000AF646EA0906CBF8206006680C7926EAB1
:100AC0000C0604F00304BC40344304604C68E400AA
:100AD00065D5364C266846F480462660246822F0A8
:100AE000030604F480440094314C3444A446D4F802
:100AF00008489607370F0EFA07F6B4432D4EB0425A
:100B000001D1002624E02C4EB04201D101261FE085
:100B10002A4EB04202D102261AE040E0284EB042EE
:100B200001D1032614E0274EB04201D104260FE084
:100B3000254EB04201D105260AE0244EB04201D133
:100B4000062605E0224EB04201D1072600E0082625
:100B5000BE402643CCF808681E4E34684F689C435C
:100B6000FF0300D51C4334601A4C241D26684F68CF
:100B70009E43BF0300D51E432660164E08363468D8
:100B80004F689C43FF0200D51C433460114E0C3665
:100B900034684F689C43BF0200D51C433460521C2C
:100BA000102AFFF445AFBDE8F88F0000443802403A
:100BB00000300140000002400004024000080240F2
:100BC000000C0240001002400014024000180240D5
:100BD000001C0240003C0140426931EA020200D19F
:100BE0000904816170470AB1816170470904FBE71C
:100BF00001488068704700000C00002002488168AE
:100C000002781144816070470C0000200B4810B539
:100C1000016841F400710160016841F48061016084
:100C2000016841F480710160032000F071F8002038
:100C300000F006F800F024F8002010BD003C02404F
:100C400070B50D4D04464FF47A712878B1FBF0F081
:100C50000A490968B1FBF0F000F004FB48B9102C18
:100C600007D200222146501E00F032F800206C60AE
:100C700070BD012070BD00000C0000201800002095
:100C80000B4882B0016841F480410160006800F4C3
:100C9000804000900648001F016841F080510160CB
:100CA000006800F080500090072002B000F030B8DB
:100CB00044380240002809DB00F01F020121914066
:100CC0004009800000F1E020C0F8001170470000EA
:100CD000F0B40E4B1B680C46C3F30223C3F10705A7
:100CE000042D00D90425191D072901D2002300E095
:100CF000DB1E012606FA05F1491E214099409E405F
:100D0000761E16403143F0BC01F078BF0CED00E0D8
:100D1000064900F0070208684FF6FF03184040EA52
:100D20000220034A10430860704700000CED00E009
:100D30000000FA052DE9F0470E46050065D0DFF802
:100D40001481D8F80000F7B200F00F00B04207D2CB
:100D500088F80070D8F8000000F00F00B04254D1BD
:100D600028683D4C810712D5400703D5206840F420
:100D7000E05020602878000703D5206840F46040E8
:100D800020602068A96820F0F000084320602878DF
:100D9000C0072DD0304968680839012812D00228D0
:100DA00013D0032811D00968890700292DDA21689A
:100DB00021F0030101432160FFF71AFF814641F250
:100DC000883A0EE009688903EFE709688901ECE7D2
:100DD000FFF70EFFA0EB0901514502D90320BDE842
:100DE000F0872068696800F00C00B0EB810FEFD14C
:100DF000D8F80010404601F00F01B14207D9077042
:100E0000006800F00F00B04201D00120E7E7287829
:100E1000400705D52068E96820F4E05008432060C9
:100E20002878000706D52068296920F4604040EA48
:100E3000C100206000F038F82168084AC1F30311AE
:100E4000515CC8400649086006480068FFF7F8FE94
:100E50000020C4E7003C024008380240A43D0008DE
:100E600018000020100000200448054900680968A7
:100E7000044AC1F38221515CC84070471800002029
:100E800008380240B43D0008044805490068096874
:100E9000044AC1F34231515CC84070471800002039
:100EA00008380240B43D0008154810B5006810F03D
:100EB0000C02144813D04110042A0FD0082A0ED176
:100EC0000F4C241F2268236802F03F025B0207D503
:100ED0002068C0F38810A0FB010106E0084610BDA1
:100EE0002168C1F38811A1FB00010023FFF768F915
:100EF0002168C1F30141491C4900B0FBF1F010BD6C
:100F0000083802400024F4002DE9F84F04006ED0A8
:100F10002078DFF83C93C007A9F104054AD009F115
:100F200004000168C1F38101012908D00068C0F301
:100F3000810002280AD1D9F80000400206D52868AD
:100F4000800337D560680028E1D033E06068B0F5F1
:100F5000803F10D0B0F5A02F286810D020F480304A
:100F60002860286820F4802028606068A8B1FFF716
:100F70003FFE06460DE0286840F48030F4E740F478
:100F800080202860F7E700BFFFF732FE801B64284F
:100F900073D828688003F7D50CE0FFF729FE0646D2
:100FA00005E000BFFFF724FE801B6428F0D8286806
:100FB0008003F7D42078DFF89C8280074FF0000A86
:100FC0003ED5A348001D016811F00C0F08D0006841
:100FD000C0F3810002280BD1D9F80000400207D4E9
:100FE0002868800716D5E068012800D112E02BE1BF
:100FF000E068B8B10120C8F80000FFF7F9FD064627
:1010000005E000BFFFF7F4FD801B0228C0D8286868
:101010008007F7D52868216920F0F80040EAC10070
:1010200028600DE0C8F800A0FFF7E2FD064604E0E6
:10103000FFF7DEFD801B02281FD828688007F7D441
:101040002078000722D5824E83486169703671B1DD
:1010500001210160FFF7CCFD074604E0FFF7C8FD62
:10106000C01B022809D830688007F7D50EE0C0F809
:1010700000A0FFF7BDFD074605E082E0FFF7B8FDE1
:10108000C01B02287DD830688007F7D4207840073D
:1010900068D5DFF8BCB100270BF13C0BDBF8000092
:1010A000C0000BD4DBF8001041F08051CBF80010E9
:1010B000DBF80000012700F080500090674E306898
:1010C000C00510D4306840F480703060FFF790FDA8
:1010D000009005E0FFF78CFD0099401A022850D8D7
:1010E0003068C005F6D55A4EA0686C3601280FD07E
:1010F0000528306810D020F001003060306820F002
:1011000004003060A068B8B1FFF772FD00900FE0F6
:10111000306840F00100F4E740F004003060F7E789
:10112000FFF766FD0099411A41F28830814266D886
:1011300030688007F4D50EE0FFF75AFD009007E015
:10114000FFF756FD0099411A41F28830814256D886
:1011500030688007F4D42FB1DBF8001021F0805103
:10116000CBF80010A069C8B33949091D0968C1F35B
:10117000810102294AD00228504607D0C8F86000F1
:1011800000E03CE0FFF734FD04463BE04746C8F88A
:101190006000FFF72DFD064605E000BFFFF728FDC4
:1011A000801B02282BD828688001F7D4D4E90701D6
:1011B0000843A16A2A4A490802EB0141626A41EAEE
:1011C0008211084394F82C1040EA0161C9F800101C
:1011D00001203866FFF70CFD044606E036E000BF4C
:1011E000FFF706FD001B022809D828688001F7D503
:1011F0002CE000BFFFF7FCFC001B022802D90320F3
:10120000BDE8F88F28688001F4D41FE00128F7D0EA
:10121000D9F80000E26900F48001914214D1226AF9
:1012200000F03F0191420FD147F6C071626A014060
:10123000914209D1A26A00F44031914204D1E16A9D
:1012400000F07060884201D00120D9E70020D7E784
:101250000438024000004742800E474200700040C0
:101260000000FFFF10B5401EB0F1807F01D30120C8
:1012700010BD4FF0E02460610F21601701F0BEFC4B
:101280000020A06107202061002010BD704770473A
:1012900070B590F83C20012A32D0012480F83C40FF
:1012A000022280F83D2003685A689D6822F070068B
:1012B0000A6832435A60134B02689A4214D0B2F162
:1012C000804F11D0104B9A420ED0104B9A420BD047
:1012D0000F4B9A4208D00F4B9A4205D00E4B9A42C0
:1012E00002D00E4B9A4204D1496825F0800319437D
:1012F000916080F83D40002180F83C10084670BDA8
:10130000022070BD000001400004004000080040C1
:10131000000C004000040140004001400018004063
:1013200010B5040003D094F83D0010B107E001208F
:1013300010BD002084F83C00204600F00DF802208B
:1013400084F83D00211D206801F0C6F8012084F8D2
:101350003D00002010BD000010B586B004461421E9
:101360006846FEF765FF1F4B226800211E489A421F
:1013700023D1026842F002020260006800F002001D
:10138000059019481038026842F0040202600068B3
:1013900000F004000590402000900220CDE90101FA
:1013A000CDE9031069461148FFF73AFB00221146C8
:1013B0001D20FFF78DFC1D2010E00D498A420FD142
:1013C000016841F0200101600068002200F0200067
:1013D000059011463720FFF77BFC3720FFF76AFCAA
:1013E00006B010BD00040040403802400008024032
:1013F000001400400168CA6842F00102CA60006837
:10140000816801F00701062903D0016841F001015C
:1014100001600020704790F83C20012A0CD0012286
:1014200000F83C2F0223437050F83C3C5961427055
:1014300000210170084670470220704770B5504C7B
:10144000002204F10C05216855F82230834202D1B4
:1014500054F8221003E0521C92B2032AF4D38342C0
:101460007ED1027F03230124012A0CD10A7D052AA3
:101470000DD0042A76D10268526BA1F85C20026874
:10148000926BA1F85E20027F022A24D030E091F80E
:101490007C204FF6FF76012A0ED0032A62D1026823
:1014A000526B92B2A1F8602081F87C40B1F85C5098
:1014B000AA420DD3521B09E00268526B92B2A1F806
:1014C0005C2081F87C30B1F86050F1E74A63DAE7DC
:1014D000751B2A44FAE74A7D052A0DD0042A41D11A
:1014E0000268526BA1F864200268926BA1F8662032
:1014F000027F042A14D022E091F87D20012A08D02E
:10150000032A2FD10268926BA1F8682081F87D40F0
:10151000EEE70268926BA1F8642081F87D30E7E77E
:101520008A7D052A1ED191F87E20012A1BD0032A2C
:1015300018D10268D26BA1F8702081F87E40027F3A
:10154000082A0FD1CA7D052A0CD191F87F20012AE3
:1015500010D0032A06D10068006C21F8780F00E053
:1015600000E0CC7170BD0268D26BA1F86C2081F8EC
:101570007E30E4E70068006C21F8740FCB7270BD18
:10158000980200202DE9F041044690F83C000D46F9
:1015900001283DD0012684F83C60022084F83D00FB
:1015A000AAB3042A46D02068082A55D0D5E90027D6
:1015B000E968036A23F480530362D0F81CC0036A0D
:1015C0002CF4407C4CEA07274FF6FF7C27F4704749
:1015D0000CEA013139434FF4204723F4204307EA52
:1015E00002321A43C16102622068C16921F440617C
:1015F000C1612068C169AA6841EA0221C0F81C10D3
:1016000084F83D60002084F83C00BDE8F08101E0F2
:101610000220FAE7D5E90012EB68206801F00CF926
:101620002068816921F00C01816120688169AA68C4
:1016300011430FE0D5E90012EB68206801F04EF984
:101640002068816921F44061816120688169AA680C
:1016500041EA02218161D3E7D5E9002C2F7B016AA1
:1016600021F480710162C169036A21F0030141EA3A
:101670000C0121F0F00C39074FF420674CEA11619E
:1016800023F4206307EA02221A43C1610262206840
:10169000C16921F00C01C1612068C169AA681143C8
:1016A000ACE710B5040003D094F83D0010B107E09A
:1016B000012010BD002084F83C00204600F00CF80A
:1016C000022084F83D00211D206800F005FF012064
:1016D00084F83D00002010BD704710B50268044634
:1016E00031B1042908D008291AD00C2908D11BE0EF
:1016F000D06840F0020002E0D06840F00400D06002
:101700000122206800F04CFF2068816801F0070189
:10171000062903D0016841F001010160002010BDDD
:10172000D06840F00800EAE7D06840F01000E6E733
:1017300070B50446006801694FF00005C943890788
:1017400015D4C168C943890711D4E91E016101207C
:101750002077206880698007204602D0FFF76EFE60
:1017600004E000F0C3F8204600F058F9257720681F
:101770000169C943490717D4C168C943490713D44C
:101780006FF004010161022020772068806910F465
:10179000407F204602D0FFF751FE04E000F0A6F89B
:1017A000204600F03BF9257720680169C943090705
:1017B00016D4C168C943090712D46FF0080101614A
:1017C000042020772068C0698007204602D0FFF7F8
:1017D00035FE04E000F08AF8204600F01FF9257776
:1017E00020680169C943C90617D4C168C943C9063D
:1017F00013D46FF010010161082020772068C069C0
:1018000010F4407F204602D0FFF718FE04E000F0FD
:101810006DF8204600F002F9257720680169C94378
:10182000C90708D1C168C943C90704D1891E01612C
:10183000204600F017F920680169C943090609D458
:10184000C168C943090605D46FF0800101612046D3
:10185000FFF71CFD20680169C943490609D4C16826
:10186000C943490605D46FF040010161204600F0EC
:1018700026F920680169C94389060BD4C168C943A8
:10188000890607D46FF0200101612046BDE8704051
:10189000FFF7FDBC70BD000010B586B004461421F2
:1018A0006846FEF7C5FC0E492068884215D10D48F0
:1018B0000021026842F008020260006800F008009F
:1018C00005904FF4805000900220CDE90101CDE950
:1018D000031069460448FFF7A3F806B010BD0000E6
:1018E0000008004030380240000C0240704770B5DC
:1018F000044690F83C000D4601280DD0012684F8DE
:101900003C60022084F83D0042B1042A18D0082A25
:101910002AD00C2A4DD139E0022070BD206800F099
:1019200057FE2068816941F0080181612068816962
:1019300021F004018161206881692A69114311E065
:10194000206800F075FE2068816941F400618161C2
:101950002068816921F480618161206881692A6938
:1019600041EA0221816124E0206800F097FE2068AE
:10197000C16941F00801C1612068C16921F0040119
:10198000C1612068C1692A69114311E0206800F033
:10199000B9FE2068C16941F40061C1612068C16974
:1019A00021F48061C1612068C1692A6941EA02218C
:1019B000C16184F83D60002084F83C0070BD10B522
:1019C000040003D094F83D0010B107E0012010BDE1
:1019D000002084F83C00204600F00CF8022084F837
:1019E0003D00211D206800F077FD012084F83D00B6
:1019F000002010BD08B500680649884208D1064895
:101A0000016841F004010160006800F004000090EA
:101A100008BD000000080040403802407047000048
:101A200010B504460068012200F0BAFD0B49206899
:101A3000884202D00A49884203D1416C41F40041F6
:101A400041642068816801F00701062903D001681C
:101A500041F001010160002010BD000000000140C4
:101A60000004014000F076BE70B5044690F83C00DA
:101A7000012812D0012584F83C50022084F83D0052
:101A8000204600F085FE01004FF0000007D084F8EA
:101A90003D5084F83C00012070BD022070BD2168DB
:101AA000CA6822F04002CA602168CA6822F48042F3
:101AB000CA6084F83D5084F83C00002070BD704737
:101AC00070B5040004D094F83900002510B106E088
:101AD000012070BD84F83850204600F023F82420FF
:101AE00084F839002068C16821F40051C1602046A3
:101AF00000F044FF2068016921F4904101612068F1
:101B0000416921F02A0141612068C16841F4005116
:101B1000C160E563202084F8390084F83A00002091
:101B200070BD000010B586B0044614216846FEF76B
:101B30007FFB14492068884221D1134800210268A4
:101B400042F480220260006800F4802005900E4874
:101B50001038026842F008020260006800F00800D5
:101B600005904FF4407000900220CDE90101032060
:101B700003900720049069460448FEF751FF06B021
:101B800010BD00000048004040380240000C0240F8
:101B90002DE9F843044690F839001F4616460D46D5
:101BA000202850D1B5B1AEB194F8380001284AD000
:101BB000012084F838004FF00008C4F83C80212050
:101BC00084F83900FFF714F8A6848146E68484F887
:101BD000388026E00120BDE8F883E08C401EE084D8
:101BE000A0684B46B0F5805F4FF000024FF08001D7
:101BF0002046009703D000F055FFE8B90DE000F053
:101C000051FFC8B928882168C0F3080048602069DE
:101C100008B16D1C05E0AD1C03E0216815F8010B4F
:101C20004860E08C0028D8D14B4600224021204655
:101C3000009700F037FF08B10320CCE7202084F89C
:101C400039000020C7E70220C5E7FEE7F0B587B0FE
:101C500014216846FEF7ECFA22480024016841F09E
:101C600080010160016801F080010591016841F087
:101C700001010160016801F001010591016841F075
:101C800008010160016801F008010591016841F057
:101C9000040101600068144F00F004004FF4C046D6
:101CA0000590002231463846FEF79DFF01250F487A
:101CB0000095CDE9010469460D48FEF7B1FE009696
:101CC000CDE90154694638460394FEF7A9FE002287
:101CD00011460620FEF7FCFF0620FEF7EBFF07B0DB
:101CE000F0BD000030380240000C0240000011102E
:101CF0000000024010B58CB0142104A8FEF798FA39
:101D0000002418480A9409940094019402941449F8
:101D10000394C0E900148460C46004618461FFF727
:101D2000FFFA1048FFF7BDFC042004905020CDE9D5
:101D3000050404A90B480894FFF796FE099409A925
:101D400008480A94FFF7A4FA0120CDE90040029464
:101D50000022694603480394FFF714FC0CB010BD41
:101D6000000400406400002010B58AB000240794ED
:101D70001C2168460894FEF75BFA10480E49C0E93A
:101D800000148460C46004618461FFF718FE079446
:101D900007A90A480894FFF77BFA7020CDE90004F0
:101DA00002940022694605480494FFF7A0FD034809
:101DB000FFF772FD0AB010BD00080040A40000202B
:101DC000FEE7704770477047401EB0F1807F01D337
:101DD000012070474FF0E0214861054AF02082F869
:101DE000140D002088610720086100207047000062
:101DF0000FE000E00348016811B10168491E01606D
:101E0000FEF7FCBE0800002030B593B030216846D4
:101E1000FEF70EFA14210CA8FEF70AFA1A4800255C
:101E2000016841F080510160006800F0805011901D
:101E30001648016841F4804101600068022400F402
:101E40008040119001200090000401908001CDE9B4
:101E50000640082008904FF4A870CDE90904072037
:101E60000B906846FFF750F80CA90F2081E831006D
:101E70004FF4A0500F90E002109005210CA8FEF73F
:101E800059FF13B030BD00004038024000700040E0
:101E90000548016841F47001016003494FF000609A
:101EA000803908607047000088ED00E00148FFF7C6
:101EB0003FBC0000640000202DE9F041FA4D2DEDFB
:101EC000108B9FEDFAEB9FEDFBFB9FEDFCAB9FEDC5
:101ED000FD9BFE4CFE48296E006840682866A0EB1A
:101EE0000108FC480068FEF747FBC4E90A01FEF759
:101EF000BBFFFEF741FB41EC180BF6480C300068C5
:101F0000FEF73AFB41EC1B0B84ED0CBB9FEDF20B93
:101F100051EC180B53EC102BFEF73CFA94ED0A0B26
:101F200041EC180B53EC1A2B51EC100BFEF78BF90C
:101F300041EC100B51EC1A0B53EC102BFEF79CFAF2
:101F400053EC182BFEF726FA53EC1B2BFEF794FAF2
:101F500041EC100B84ED0E0B94ED001B53EC102B99
:101F600051EC110BFEF710FA41EC180B84ED108BBD
:101F70009FEDDB0B53EC102BFEF70CFA95ED021BDB
:101F800053EC112BFEF700FA53EC1E2BFEF702FA6E
:101F900041EC1D0B9FEDD40B51EC180B53EC102BA7
:101FA000FEF7F8F995ED001B53EC112BFEF74BF9FA
:101FB00053EC1D2BFEF747F941EC180B53EC1F2B8C
:101FC000FEF738FB02D284ED12FB0FE053EC192B25
:101FD00051EC180BFEF716FB06D2B0EE490AF0EEF4
:101FE000690A84ED120B01E084ED128B94ED120B63
:101FF0009FEDBF1B51EC100B53EC112BFEF7CAF9F0
:10200000C4E9140194ED0C0B00F00AFEB0EE40CAD6
:10201000F0EE60CA01F092FE9FEDB7BBB84F30B949
:10202000B0EE4C0AF0EE6C0A01F066FE20B1B0EEA4
:1020300049CAF0EE69CA0BE09FEDB21BB0EE4C0A44
:10204000F0EE6C0A00F078FEB0EE40CAF0EE60CA26
:1020500053EC192B51EC1C0BFEF7D4FA51EC1C0B72
:1020600005D281F00041FEF7B3FA404201E0FEF7ED
:10207000AFFA2067B0EE49CAF0EE69CA53EC1F2BE5
:1020800051EC180BFEF7D6FA08D253EC1F2B51EC8B
:10209000180BFEF779F941EC180B0AE053EC192BF9
:1020A00051EC180BFEF7C6FA03D8B0EE498AF0EEF1
:1020B000698A53EC182B51EC1C0BFEF7A3FA01D0E4
:1020C000012600E0002653EC192B51EC180BFEF70B
:1020D00099FA04D2B0EE4B8AF0EE6B8A1DE053EC15
:1020E000192B51EC180BFEF7A5FA04D2B0EE4A8A70
:1020F000F0EE6A8A11E0B0EE49FAF0EE69FA53ECBC
:102100001F2B51EC180BFEF77DFA04D1B0EE4F8A6D
:10211000F0EE6F8A01E097ED008BB0EE480AF0EE2A
:10212000680A01F00BFE9FED79FB68B9B0EE4F1A1B
:10213000F0EE6F1AB0EE480AF0EE680A00F0FCFD0F
:10214000B0EE40CAF0EE60CA94ED100B9FED711B2B
:1021500051EC100B53EC112BFEF71CF941EC180B52
:1021600053EC192BFEF74EFA11D353EC192B51EC0B
:10217000180BFEF75FFA11D3B0EE49BAF0EE69BA68
:1021800053EC1B2B51EC180BFEF73CFA04D1B0EECC
:102190004BAAF0EE6BAA01E097ED00ABB0EE4A0A55
:1021A000F0EE6A0A01F0CAFD20B1B0EE49AAF0EEE5
:1021B00069AA0DE0B0EE4F1AF0EE6F1AB0EE4A0ABF
:1021C000F0EE6A0A00F0B8FDB0EE40AAF0EE60AAA8
:1021D000524F6EB353EC192B51EC1C0BFEF712FA55
:1021E00051EC1C0B05D281F00041FEF7F1F94042A1
:1021F00001E0FEF7EDF946B2B0EE49BAF0EE69BA89
:1022000053EC1B2B51EC1A0BFEF7FCF951EC1A0B9B
:1022100005D281F00041FEF7DBF9404201E0FEF714
:10222000D7F940B2864203D1B0EE4B8AF0EE6B8A0A
:102230004FF400513A48FEF7CFFC4046FEF79CF9B8
:102240009FED381B53EC112BFEF7A4F841EC1A0B51
:1022500053EC182BFEF79EF895ED001B53EC112B59
:10226000FDF7F1FFC5E9000153EC1D2B51EC1A0BF2
:10227000FEF790F895ED021B53EC112BFDF7E3FFF1
:10228000C5E90201B869FEF766F994ED141B53EC39
:10229000112BFEF7B7F963D094ED148B51EC180BAA
:1022A000FEF777F942E00000E001002000000000A6
:1022B000000059400000000000408F400000000076
:1022C0000000F03F00000000000000006801002056
:1022D000BC3D000828040040000000000000004051
:1022E000000000000000E03F0000000000002E4061
:1022F0005BBF52A0D6AFB43F000000000000F0BFAB
:1023000058000020000000000000F0410000000024
:10231000000070400000000000002440B0020020D7
:10232000000C02409A9999999999C93FB86153EC68
:10233000192B51EC180BFEF77DF911D80A480568E6
:10234000E86AFEF719F994ED141B53EC112BFEF714
:1023500021F853EC1E2BFEF78FF8FEF739F968636E
:10236000BDEC108BBDE8F081A40000200148FFF710
:10237000DFB90000E400002070B5534896B090F932
:1023800070100122002561B101290DD090F8721062
:1023900080F8711090F871104C4C41B190ED160B13
:1023A00007E080F87120F5E780F87150F2E790EDD2
:1023B000140B4FF0FF3184ED020B80F8711090F98F
:1023C0006D305BB1012B0CD090F86F3080F86E301F
:1023D00090F86E3043B190ED120B07E080F86E205C
:1023E000F6E780F86E50F3E790ED100B84ED040BE8
:1023F00080F86E1090F96A3063B1012B0DD090F81F
:102400006C3080F86B3000BF90F86B3043B190EDCA
:102410000E0B07E080F86B20F6E780F86B50F3E7CF
:1024200090ED0C0B84ED060B80F86B1090F9673083
:102430001BB1012B04D090F8692080F8682001E0DE
:1024400080F8685090F8682012B190ED0A0B01E016
:1024500090ED080B84ED080B80F86810236FA366DD
:1024600094ED020B1A4A8DED060B94ED080B322108
:102470008DED040B94ED060B08A88DED020B94ED89
:10248000040B8DED000B00F0A1FB08A801F062F930
:10249000E06601462E22A4F876200E4800F039FAB4
:1024A0000C4E308820B1A4F87450304600F02CFB5C
:1024B00096F8200010B17088A4F87400022086F805
:1024C000200016B070BD0000E0010020680100206F
:1024D000C03D00086C060020F0B50268254C264D72
:1024E000264E274F274B4FF0804CA04209D0604525
:1024F00007D0A84205D0B04203D0B84201D09842DC
:1025000004D122F0700E4A6842EA0E02A0421BD0AB
:10251000604519D0A84217D0B04215D0B84213D0A8
:10252000984211D0184DA8420ED0184DA8420BD099
:10253000174DA84208D0174DA84205D0164DA84205
:1025400002D0164DA84203D122F44075CA682A432E
:102550004D6922F080022A4302608A68C2620A68DA
:102560008262A04201D0984201D109690163012130
:102570004161F0BD0000014000040040000800403F
:10258000000C0040000401400040014000440140B4
:102590000048014000180040001C0040002000409E
:1025A00010B501F01F030121046A99408C430462B5
:1025B000016A9A401143016210BD10B5846842EA75
:1025C000032224F47F440A432243826010BD0000AA
:1025D000F0B5026A22F001020262036A426884696D
:1025E000124E24F073050C682C4323F002058B680F
:1025F0002B430D4DA84201D0B04205D123F008076E
:10260000CB683B4323F00403A84201D0B04205D17C
:102610004D6922F4407215438A692A4342608461FD
:10262000496841630362F0BD0000014000040140BD
:10263000F0B5026A22F010020262026A43688469FD
:102640000D6824F4E64444EA05248D6822F0200253
:1026500042EA05120F4D104EA84201D0B04206D1F9
:10266000CF6822F0800242EA071222F04002A8421C
:1026700001D0B04207D14D6923F4406343EA85039A
:102680008D6943EA8503436084614968816302621E
:10269000F0BD00000000014000040140F0B5026AF6
:1026A00022F480720262026A4368C46922F40072F2
:1026B00024F073050C68124E2C438D6842EA052203
:1026C0000E4DA84201D0B04206D1CF6822F400627C
:1026D00042EA072222F48062A84201D0B04207D128
:1026E0004D6923F4405343EA05138D6943EA05130A
:1026F0004360C4614968C1630262F0BD00000140EB
:102700000004014030B5026A22F480520262046A79
:102710004268C3690D6823F4E64343EA05238D68E4
:1027200024F4005444EA0534084DA84202D0084D70
:10273000A84204D14D6922F4804242EA85124260E7
:10274000C36149680164046230BD000000000140BB
:102750000004014030B40D4C002104F10C05236845
:1027600055F82120824202D154F8213003E0491C5F
:1027700089B20329F4D3824205D1D3F8800000281E
:1027800001D030BC004730BC7047000098020020E8
:1027900010B503689A6822F070044A68224322F058
:1027A00007040A6822439A604A6812F00F0F30D17A
:1027B0001211082A2DD2DFE802F02C2C2C2C0B2130
:1027C00027040B69D1E902210068FFF7F6FE20E03B
:1027D0000A68052A10D00268136A146A24F00104FA
:1027E000146202689469096924F0F00444EA011152
:1027F0009161006803620CE0012010BD0A698968DC
:10280000006800F008F804E00A698968006800F0D0
:1028100053F8002010BD10B5036A046A24F00104C7
:102820000462846924F0F00444EA021423F00A02EA
:102830000A438461026210BD70B5046A24F0010489
:1028400004628469056A154EB04214D0B0F1804F1D
:1028500011D0134EB0420ED0124EB0420BD0124ED9
:10286000B04208D0114EB04205D0114EB04202D055
:10287000104EB04203D124F00304144301E044F0AD
:1028800001041A0724F0F00444EA126225F00A0356
:1028900001F00A0119438261016270BD000001402C
:1028A0000004004000080040000C0040000401400B
:1028B000004001400018004010B5036A23F01003E7
:1028C00003628369046A23F4704343EA023224F00A
:1028D000A00343EA01118261016210BD30B5046AB0
:1028E00024F0100404628469056A24F4407444EA04
:1028F000022222F470444FF6FF7202EA03322243AE
:10290000A02425F0A00304EA0111194382610162A9
:1029100030BDF0B500231C4617E0D0E90456B5429F
:1029200001D106889EB911F8017B6E1C06612F70DB
:10293000D0E904565B1C9BB2B54208D0C668B542CC
:1029400001D185680561641CA4B29442E5D30121DC
:1029500080F821100188194489B2018090F8214043
:10296000022C02D14488091B0180002180F821102B
:10297000934202D28188491C8180F0BD2DE9F0414B
:10298000044600680169E26821F440511143016185
:102990002169A068E269084361691143084321681D
:1029A000CA6849F20C639A430243CA6020684169CD
:1029B000A26921F4407111434161E069192764253E
:1029C0003226B0F5004F354A354920684FF00008EF
:1029D00006D0884201D0904236D1FEF755FA35E054
:1029E000884201D0904202D1FEF74EFA01E0FEF794
:1029F0003BFA61684A18A0FB070148EB0803FDF7A2
:102A0000DFFB0146B0FBF5F00201B1FBF5F06FF022
:102A10001803584301EB800006EBC000B0FBF5F053
:102A200000F0F80002EB4002B1FBF5F0584301EB77
:102A3000800006EBC000B0FBF5F000F00700216855
:102A400010448860BDE8F081FEF70EFA61688B0FD4
:102A50008A00A0FB0701FDF7B3FB0146B0FBF5F0D0
:102A60006FF01802504301EB800006EB0010B0FB42
:102A7000F5F000F0F002B1FBF5F002EB0012B1FB53
:102A8000F5F06FF01803584301EB800006EB0010DF
:102A9000B0FBF5F000F00F00D1E70000001401409A
:102AA000001001402DE9F041984617460E460446B5
:102AB000069D1DE0681C1BD02DB1FEF799F8A0EB18
:102AC0000800A84214D92068C16821F4D071C160FF
:102AD0002068416921F001014161202084F839001A
:102AE00084F83A00002084F838000320BDE8F08123
:102AF0002068006836EA000004D00020B842D9D02F
:102B00000020F3E70120F9E770B5044690F82000B3
:102B1000002825D02088002822D0002184F8201009
:102B2000A28961690F4B521A92B20125904206D8D0
:102B300060805B68024604E0A16861610DE062802C
:102B40005B680948FFF724F884F8205060886169C1
:102B500001446161E2689142EED22188081A208026
:102B600070BD000028000020240100201148002131
:102B70004FF40072018041808180C280A0F5007214
:102B80000346C0E90223026142610B4A82610B4A9B
:102B9000C261022280F8202080F82110084AA2F1A8
:102BA0000801098842F82100121D064842F8210058
:102BB000704700006C06002013290008092B00084C
:102BC0003000002024010020FEE700000FB41CB5F7
:102BD0000246002007AC00290BD0491ECDE9002198
:102BE000054B6A462146069800F012FA009A002129
:102BF00011701CBC5DF814FB3F3700080907090E73
:102C0000002804DB00F1E02080F80014704700F099
:102C10000F0000F1E02080F8141D70470000000054
:102C20002DE9F0412DED020B9FED3D0B2DED028BBB
:102C30009FED3D8BDDE90254C4F30A50A0F2FF364C
:102C4000142E37DA002E18DA53EC102B9DED020B00
:102C500051EC100BFDF7F7FA53EC182BFDF7EAFCDB
:102C600057D2002CA4BF0024254652DA24F000409D
:102C7000284318BF2E4C4CD01AE02E4820FA06F7F5
:102C800004EA070028431FD053EC102B9DED020BE4
:102C900051EC100BFDF7D7FA53EC182BFDF7CAFCDB
:102CA00037D2002C03DA4FF48010F0400444BC43C8
:102CB00000252EE0332E07DCA6F114004FF0FF3183
:102CC00021FA00F73D4206D19DED020BBDEC028BCF
:102CD00002B0BDE8F08153EC102B9DED020B51ECDE
:102CE000100BFDF754FB53EC182BFDF7A3FC10D28F
:102CF000002C0DDA142E08BF641C09D0C6F1340074
:102D0000012101FA00F02844A84238BF641C05469E
:102D1000BD43CDE902549DED020BD7E70000000052
:102D20009C7500883CE4377E000000000000000035
:102D30000000F0BFFFFF0F0010B52DED040B86B0B3
:102D40009DED060B10EE100A10EE901A8DED000BA3
:102D5000002818BF0120084320F00040C0F17F6028
:102D600000F1E040C00F21D19DED080B10EE101ACC
:102D700010EE900A8DED000B002918BF01210843C9
:102D800020F00040C0F17F6000F1E040C00F0DD1A5
:102D900029490798B1EB400F04BF0698002842D09C
:102DA0000998400004BF089800283CD09DED080B0E
:102DB00053EC102B9DED060B51EC100BFDF7F6FCC0
:102DC000CDE902019DED020B40F2FF7110EE900A79
:102DD0008DED000B31EA105021D00798039900F0D7
:102DE000004001F00041884219D09DED080B8DEDA7
:102DF000040B9DED020B8DED000B10EE900A059972
:102E000061F31E0005909DED041B9DED020B51EC3E
:102E1000110B53EC102BFDF7BAFACDE902019DED31
:102E2000020B0AB010BD012000F02AF80AB0BDE87C
:102E3000104000F005B800000000E0FF00000000B6
:102E40009FED050B10B553EC102B51EC100BFDF75B
:102E500013FB41EC100B10BD00000000000000004F
:102E600002E008C8121F08C1002AFAD17047704753
:102E7000002001E001C1121F002AFBD170470000B1
:102E80000149086070470000600000202DE9FF5FE5
:102E900082B00021DDE90430020DDDF840B00343CB
:102EA00018D044F61050A2F2FF3242431514119884
:102EB00001281FD0A5EB0B00401C5FEA000A4FF071
:102EC00000064E4FDFF83891B046504615D5CAF18E
:102ED000000413E0119801244AA3012801D16FEAEC
:102EE0000B010298119AC0E90031C0E9024206B014
:102EF000BDE8F09FCBF10000DFE704460021404A27
:102F0000491842EB0450CDE9001012E0E00707D069
:102F100032463B4640464946FDF73CFA80468946E4
:102F200032463B4610461946FDF734FA06460F4630
:102F30006410002CEAD1DDE90401DDE90023BAF1D7
:102F4000000F06DAFDF726FA42464B46FDF722FA55
:102F500005E0FDF791FA42464B46FDF78DFA04462F
:102F60000E460022284BFDF765FB03D84FF0FF30DB
:102F7000014607E00022254B20463146FDF763F964
:102F8000FDF757FC102409E0002C0ADB0A2200237D
:102F9000FDF716F9039B30321A55641E50EA010200
:102FA000F2D1641C039AC4F111031444119A012A4A
:102FB00003D0012208430DD10AE0084304D00020C9
:102FC0004FF0110B119072E7A3EB0B056D1E0DE096
:102FD0005B4504DD4FF0000205F1010504E003DA72
:102FE0004FF00002A5F10105002AECD002981199DA
:102FF000C0E90231C0E9004579E700000000144053
:103000000000F03F300000000000F0430000E03F0F
:103010002DE9FF4F95B09B468946064600250FE2F5
:10302000252877D100242746F84A0121059400E09D
:10303000044316F8013F203B01FA03F01042F7D198
:1030400030782A2811D06FF02F033078A0F13002A9
:10305000092A16D8059A44F0020402EB820203EB17
:1030600042021044761C0590EFE759F8042B0592B4
:10307000002A03DA504244F40054059044F002045C
:10308000761C30782E2816D116F8010F44F004046F
:103090002A280DD06FF02F023078A0F13003092BD1
:1030A00009D807EB870302EB4303C718761CF3E745
:1030B00059F8047B761C30786C280FD006DC4C283D
:1030C00017D068280DD06A2814D104E0742810D0D5
:1030D0007A280FD10DE044F400140AE044F480147F
:1030E00001E044F440147278824202D104F5801465
:1030F000761C761C307866280BD013DC582877D0E5
:1031000009DC002875D04528F6D04628F4D0472899
:103110001AD19DE118E0632835D0642879D065285C
:1031200012D195E1702873D008DC6728F1D06928A6
:103130006FD06E280DD06F2806D1B5E073282CD043
:10314000752875D0782874D05A46179990476D1C09
:1031500075E1C4F30250022809D003280DD0D9F834
:10316000001004280DD00D6009F1040967E1D9F8B9
:103170000010EA17C1E90052F6E7D9F800100D80F7
:10318000F2E70D70F0E719F8041B8DF8001000202D
:103190008DF80100EA46012003E059F804AB4FF036
:1031A000FF3061074FF0000102D40DE008F101018A
:1031B0008846B9420FDA8045F8DB1AF80810002972
:1031C000F4D108E008F1010188468142FADB1AF8DF
:1031D00008100029F6D105985B46A0EB08072146A8
:1031E0003846179A00F094FA284400EB080507E0E7
:1031F0004DE029E10DE01AF8010B5A461799904766
:10320000B8F10108F7D25B4621463846179A13E118
:1032100042E00A220092C4F302524FF0000A022A4E
:1032200008D059F804CB032A4FEAEC710AD00DE01C
:1032300029E02AE009F1070121F00702F2E802C1C2
:10324000914609E00FFA8CFC4FEAEC71042A03D195
:103250004FFA8CFC4FEAEC71002907DA0A4600218C
:10326000DCF1000C61EB02012D2202E0220504D505
:103270002B228DF80420012203E0E20701D0202256
:10328000F7E7904659E00A2102E010220DE01021F4
:103290004FF0000A00910BE010224FF0000A44F0BA
:1032A00004040827009203E008224FF0000A00926D
:1032B000C4F30252022A05D059F804CB0021032A94
:1032C00008D009E009F1070121F00702F2E802C184
:1032D000914605E01FFA8CFC042A01D10CF0FF0C8A
:1032E0004FF00008220728D5702806D0009B83F0F5
:1032F000100353EA0A0305D00EE040228DF80420A3
:10330000012208E05CEA010206D030228DF8042098
:103310008DF8050002229046009B83F0080353EAD3
:103320000A030AD15CEA010201D1620705D5302205
:103330008DF804204FF001087F1E582804D034A0D7
:1033400003900EA802900DE036A0F9E753466046C0
:10335000009AFCF735FF84460398825C0298401E71
:10336000029002705CEA0100F0D1029806A9081AE6
:1033700000F1200A600702D524F4803400E0012720
:10338000574502DDA7EB0A0000E0002000EB0A0130
:10339000009005984144401A0590E00306D45B462E
:1033A0002146179A059800F0B3F90544002706E076
:1033B00001A85A46C05D179990476D1C7F1C474570
:1033C000F6DBE0030CD55B462146179A059800F022
:1033D0009FF9054404E030205A46179990476D1C28
:1033E0000099481E00900029F5DC08E00298029937
:1033F0005A460078491C0291179990476D1CBAF102
:103400000001AAF1010AF1DC65E1000009280100D0
:10341000303132333435363738396162636465664A
:10342000000000003031323334353637383941420C
:10343000434445460000000000F058F90544761C5E
:10344000307800287FF4ECAD19B02846BDE8F08F45
:10345000620700D4062709F1070222F0070CFCE8F6
:103460000223E14603F000485FEA080C02D00FF2A5
:10347000702C0DE05FEA045C02D50FF2682C07E0C7
:103480005FEAC47C02D00FF2602C01E0AFF2700C56
:103490004FF0FF3823F00043CDF850C065280CD022
:1034A00006DC452809D046281DD047283DD13DE0FF
:1034B000662818D067287ED138E00021112F01DB63
:1034C000112000E0781CCDE9000106A90EA8FFF745
:1034D000DDFCDDE90F010E9A03910021009207F156
:1034E000010A04914DE04FF000400097CDE9011032
:1034F00006A90EA8FFF7CAFCDDE90F0203920E9B96
:1035000011990022DDF80CA00093049211B9791CE6
:1035100000EB010AB7EB0A0004D4C0F1FF3007F159
:10352000010A0490AAEB0700019044E0012F00DAA1
:1035300001270021112F01DD112000E03846CDE9DF
:10354000000106A90EA8FFF7A1FCDDE90F010E9A04
:103550000391002104910092BA4621070CD40399EB
:10356000514500DA8A46BAF1010F05DD009AAAF149
:103570000101515C302908D0B84202DA10F1040F81
:1035800006DA0121CDE9011015E0AAF10101E9E710
:10359000002805DC049901440491AAEB000102E033
:1035A000411C514500DD8A460499401A401C019097
:1035B0004FF000400290200704D40198504501DBF1
:1035C000CDF8048000208DF84F0002980DF14F07D0
:1035D000B0F1004F25D02B200E9002984FF002083A
:1035E00000280CDA404202902D200E9007E00A21BC
:1035F0000298FDF737F83031029007F8011DB8F155
:103600000001A8F10108F2DC02980028EFD1791E30
:103610000E980870307800F0200040F0450007F860
:10362000020D12A8C01B00F107081498007800B121
:10363000012000EB0A01019801EBE071059841447B
:10364000401A401E0590E00306D45B462146179AB7
:10365000059800F05DF805441498007818B15A46B2
:10366000179990476D1CE00324D55B462146179AB5
:10367000059800F04DF805441CE00498002807DB8D
:10368000DDE90301884203DD0098405C179901E001
:10369000179930205A469047049805F10105401CBF
:1036A00004900198401E019004D12E205A4617998B
:1036B00090476D1CBAF10001AAF1010ADDDC05E0BA
:1036C00017F8010B5A46179990476D1CB8F1000185
:1036D000A8F10108F4DC5B462146179A0598ABE691
:1036E0002D0000002B000000200000002DE9F0411B
:1036F000044600251E461746880404D405E03946D2
:103700002020B0476D1C641EF9D52846BDE8F08125
:103710002DE9F041044600251E469046C80301D518
:10372000302700E02027880404D505E041463846CC
:10373000B0476D1C641EF9D52846BDE8F0814A6883
:10374000002A06D00A68531C0B6010704868401E9F
:1037500048607047704700002DED028B82B0FDF786
:1037600055FAFEF751FBFEF771FAFEF7C3FAFEF7C2
:10377000FBFA00243A48009438490194C0E9001447
:103780008460C4608461FDF7CBFD009469463448D1
:103790000194FDF77DFD32483249403001604FF41D
:1037A000E131C0E901140C21C460C0E90441846125
:1037B000C461FEF785F92C4E3068FCF7DDFE9FED05
:1037C0002B8B53EC182BFCF757FEFCF701FFFEF791
:1037D000FBFA284D012740B36F604FF080783068C6
:1037E000FCF7CAFE894606466868401C686049ECDA
:1037F000106B53EC182B51EC100BFCF73DFEFCF753
:10380000E7FE6968B0FBF1F04045EDD249EC106B82
:1038100053EC182B51EC100BFCF72EFEFCF7D8FEE6
:103820006968B0FBF1F0FEF7CFFA6868A860114E46
:10383000347000F027F8DFF84080A8680028FCD139
:103840006868A860307818B1D8F800000BA1016052
:10385000377000F051F93470EFE7000000140040B9
:10386000E400002000480040180000200000000094
:1038700000408F4000000020BC3D00084F7665727C
:1038800072756E002DE9F05F082000F06DFA89482E
:10389000002478210068046044608748FCF7C8FC75
:1038A000854878217830FCF7C3FC864D844FDFF8DB
:1038B0001C8229888148844B47F8210048F8213030
:1038C000491C2980DFF8089240F28F61C0E9001995
:1038D000632181604CF25031C1604FF4FA71016193
:1038E0003221C0E9061404624FF0010A446280F8F4
:1038F00014A0092141758175C175C0F88040C0F8D8
:103900008440C0F88840C0F88C40C0F89040184609
:1039100040F28F6100688162194663200968C862BD
:1039200001461846C16019463220096848630121E2
:103930001846FDF770FD2988664840F2473647F87B
:103940002100654848F82100491C29806149DFF8B9
:103950008CB10A460E6040F23F61C2F8049091605B
:103960003E21C2F80CB0116111468C61CC610C6231
:103970004C62A1F85C40A1F85E40A1F86040A1F85B
:10398000624082F87CA0CC620C634C630521117507
:10399000092151759175D1751146C1F88440C1F85E
:1039A0008840C1F88C40C1F890404D49C2F8801061
:1039B00001688E6202684FF6FF71D162C1600168D2
:1039C0000A6822F440720A6001680A680A600121EC
:1039D0000461FDF720FD29884248434A47F8210049
:1039E00048F82120491C298040F8106B642384602A
:1039F000C4600461446140E901B340F2E73140E949
:103A000003910923037143718371C3714467846710
:103A1000C467364BC0F88040036710688662106840
:103A2000C162D16001211046FDF7F5FC264800BFB8
:103A300090F83D100229FBD000212348FDF7F0FF4C
:103A4000FFF794F82B492A480860234890F83D1066
:103A50000229FBD000212048FDF73FFE1E48FDF75C
:103A6000C9FC2148FDF7C6FC1F48FDF7C3FC1248FE
:103A70004FF0FF31783080F8641080F8651080F8DE
:103A8000671080F8681080F86A1080F86B1080F872
:103A90006D1080F86E1080F8701080F87110054974
:103AA00080F8734080F87440096849680166BDE891
:103AB000F09F0000BC3D000868010020B00200201B
:103AC0009802002024000020A4000020A40200206E
:103AD00000BD01054403002064000020A086010011
:103AE000B91E0008D8030020E40000207923000854
:103AF0008D0800085802002070B5644890F96410E1
:103B00000124002271B101290FD090F8661080F8CD
:103B1000651000BF90F865105C4B783B41B190EDAB
:103B2000060B07E080F86540F4E780F86520F1E7D0
:103B300090ED040B4FF0FF3183ED000B80F8651022
:103B400090F9685095B1012D13D090F869509DB14E
:103B50005FF0000580F8675090F867504B4E783E54
:103B600096ED0E0B55B180ED0A0B09E080F8674029
:103B7000F2E780F86720EFE70125EBE780ED080B1F
:103B800090F8675080F8695080F8671090F96B5092
:103B900095B1012D13D090F86C509DB15FF00005E8
:103BA00080F86A5090F86A50384E783E96ED120BC5
:103BB00055B180ED0E0B09E080F86A40F2E780F81D
:103BC0006A20EFE70125EBE780ED0C0B90F86A50D7
:103BD00080F86C5080F86A1090F96E5095B1012D04
:103BE00013D090F86F509DB15FF0000580F86D50D4
:103BF00090F86D50254E783E96ED100B55B180ED46
:103C0000120B09E080F86D40F2E780F86D20EFE7D5
:103C10000125EBE780ED100B90F86D5080F86F50A8
:103C200080F86D1090F971502DB1012D06D090F8EB
:103C300072407CB1002480F8704001E080F8702070
:103C400090F87040114D783D95ED140B24B180ED46
:103C5000160B03E00124EEE780ED140B10F8704F13
:103C6000847001700A48C16A21B1C268B2FBF1F1E7
:103C7000016301E0114602631966406B586605480E
:103C8000016800684968491C416070BDE00100207E
:103C900044030020BC3D00081CB5034801900020EF
:103CA00000909DED000B1CBD0000F07F4FF0FF4029
:103CB00000EE100A704700001CB503480190002078
:103CC00000909DED000B1CBD0000F0FF014800EED0
:103CD000100A7047000080FF1CB5034801900020C7
:103CE00000909DED000B1CBD0000F8FF014800EEA8
:103CF000100A70470000C0FF10B50F4C2DED028B6D
:103D0000B0EE408AF0EE608A94ED040B51EC180B93
:103D100053EC102BFCF776FC08D094ED060B51EC1D
:103D2000180B53EC102BFCF76DFC03D10120BDECFC
:103D3000028B10BD0020FAE7380000201CB510EE01
:103D4000900A8DED000BC0F30A50A0F5E061FF3939
:103D500008D110EE900A000302D110EE100A08B14B
:103D600001201CBD00201CBD10B5FFF7B5FF0C4C99
:103D700084ED080BFFF7BAFF84ED020AFFF78CFF12
:103D800084ED040BFFF792FF84ED000AFFF794FF28
:103D900084ED060BFFF79AFF84ED010A10BD0000C9
:103DA00038000020000000000000000001020304B1
:103DB0000607080900000000010203041C0000209F
:103DC00025752C25352E32662C25352E32662C2570
:103DD000352E32662C25352E32660D0A0000000085
:103DE000003E00080000002064000000602E000873
:103DF000643E0008640000202C0A0000702E0008B9
:103E000000000000010000000100000001000000AF
:103E100010000000000000000024F400000000007A
:103E20000000000000000000000000000A00000088
:103E30000000000000000000000000000000000082
:103E40000000000000000000000000000000000072
:103E50000000000000000000000000000000000062
:043E6000000000005E
:040000050800018965
:00000001FF
